S0290000636F6E745F736572766F5F746573745F4D53535F4D53535F434D335F305F6170702E73726563A5
S315200000000000012099020020090300200B03002094
S315200000100D0300200F030020110300200000000024
S315200000200000000000000000000000001303002074
S3152000003015030020000000001703002019030020EC
S315200000401B0300201D0300201F0300202103002086
S315200000502303002025030020270300202903002056
S315200000602B0300202D030020810F0020AD0F002040
S315200000703303002035030020211B002039030020F4
S315200000803B0300204D1B00203F030020410300209E
S315200000906107002045030020470300204903002074
S315200000A04B030020000000000000000000000000BC
S315200000B00000000000000000000000004D030020AA
S315200000C04F03002051030020530300205503002036
S315200000D057030020590300205B0300205D03002006
S315200000E05F030020610300206303002065030020D6
S315200000F067030020690300206B0300206D030020A6
S315200001006F03002071030020730300207503002075
S3152000011077030020790300207B0300207D03002045
S315200001207F03002081030020830300208503002015
S3152000013087030020890300208B0300208D030020E5
S315200001408F030020910300209303002095030020B5
S3152000015097030020990300209B0300209D03002085
S315200001609F030020A1030020A3030020A503002055
S31520000170A7030020A9030020AB030020AD03002025
S31520000180AF030020B1030020B3030020B5030020F5
S31520000190B7030020B9030020BB030020BD030020C5
S315200001A0BF030020C1030020C3030020C503002095
S315200001B0C7030020C9030020CB030020CD03002065
S315200001C0CF030020D1030020D3030020D503002035
S315200001D0D7030020D9030020DB030020DD03002005
S315200001E0DF030020E1030020E3030020E5030020D5
S315200001F0E7030020E9030020EB030020ED030020A5
S31520000200EF030020F1030020F3030020F503002074
S31520000210F7030020F9030020FB030020FD03002044
S31520000220FF03002001040020030400200504002011
S3152000023007040020090400200B0400200D040020E0
S315200002400F040020110400201304002015040020B0
S3152000025017040020190400201B0400201D04002080
S315200002601F04002021040020230400202504002050
S3152000027027040020290400202B0400202D04002020
S315200002802F040020310400203304002035040020F0
S315200002903704002039040020684880476848002831
S315200002A00BD168486849694A884206D091421CBFEA
S315200002B050F8043B41F8043BF8D165486549664A45
S315200002C0884206D091421CBF50F8043B41F8043BBB
S315200002D0F8D162486249634A914218BF41F8040B3B
S315200002E0FAD100000000000000000000000000001D
S315200002F0DFF874010FF2030E00474FF000004FF0B5
S315200003000001DFF868F1FEE7FEE7FEE7FEE7FEE71D
S31520000310FEE7FEE7FEE7FEE7FEE7FEE7FEE7FEE78F
S31520000320FEE7FEE7FEE7FEE7FEE7FEE7FEE7FEE77F
S31520000330FEE7FEE7FEE7FEE7FEE7FEE7FEE7FEE76F
S31520000340FEE7FEE7FEE7FEE7FEE7FEE7FEE7FEE75F
S31520000350FEE7FEE7FEE7FEE7FEE7FEE7FEE7FEE74F
S31520000360FEE7FEE7FEE7FEE7FEE7FEE7FEE7FEE73F
S31520000370FEE7FEE7FEE7FEE7FEE7FEE7FEE7FEE72F
S31520000380FEE7FEE7FEE7FEE7FEE7FEE7FEE7FEE71F
S31520000390FEE7FEE7FEE7FEE7FEE7FEE7FEE7FEE70F
S315200003A0FEE7FEE7FEE7FEE7FEE7FEE7FEE7FEE7FF
S315200003B0FEE7FEE7FEE7FEE7FEE7FEE7FEE7FEE7EF
S315200003C0FEE7FEE7FEE7FEE7FEE7FEE7FEE7FEE7DF
S315200003D0FEE7FEE7FEE7FEE7FEE7FEE7FEE7FEE7CF
S315200003E0FEE7FEE7FEE7FEE7FEE7FEE7FEE7FEE7BF
S315200003F0FEE7FEE7FEE7FEE7FEE7FEE7FEE7FEE7AF
S31520000400FEE7FEE7FEE7FEE7FEE7FEE7FEE7FEE79E
S31520000410FEE7FEE7FEE7FEE7FEE7FEE7FEE7FEE78E
S31520000420FEE7FEE7FEE7FEE7FEE7FEE7FEE7FEE77E
S31520000430FEE7FEE7FEE7FEE7FEE70000951C00204C
S31520000440000000000000002000000020708A00202C
S31520000450708A0020708A0020908F00200000000003
S31520000460908F00208898002005270020590800201A
S3152000047048F69073C2F200031A780AB90120187060
S31520000480704700BF48F67020C2F2000008B5036826
S315200004902BB140F20003C0F2000303B1984708BD18
S315200004A080B500AF4FF06B004FF0000100F024F84C
S315200004B080BD00BF80B582B000AF4FF03E0000F097
S315200004C041F80346BB714FF03D0000F03BF8034670
S315200004D0FB71BA79FB794FEA03239BB213449BB293
S315200004E003F5227303F102039BB21BB2184607F1F0
S315200004F00807BD4680BD00BF80B586B002AF024664
S315200005000B46FA71BB71FB793B73BB797B7307F1A1
S315200005100C034FF00002009249F63C00C2F20000A4
S315200005204FF0D0011A464FF0020300F07BFE49F649
S315200005303C00C2F2000000F03BFF07F11007BD4669
S3152000054080BD00BF80B586B002AF0346FB7107F1C0
S3152000055007034FF00002009249F63C00C2F2000069
S315200005604FF0D0011A464FF0010300F05BFE49F62A
S315200005703C00C2F2000000F01BFF07F10F034FF012
S315200005800002009249F63C00C2F200004FF0D10171
S315200005901A464FF0010300F0A7FE49F63C00C2F2CE
S315200005A0000000F005FFFB7B184607F11007BD464B
S315200005B080BD00BF80B483B000AF0346FB804EF2FF
S315200005C00013CEF20003B7F906204FEA5212F9883B
S315200005D001F01F014FF0010000FA01F143F822104B
S315200005E007F10C07BD4680BC704700BF80B483B0BE
S315200005F000AF0346FB804EF20013CEF20003B7F99C
S3152000060006204FEA5212F98801F01F014FF001002F
S3152000061000FA01F102F1200243F8221007F10C073B
S31520000620BD4680BC704700BF80B483B000AF034690
S31520000630FB804EF20013CEF20003B7F906204FEAF4
S315200006405212F98801F01F014FF0010000FA01F162
S3152000065002F1600243F8221007F10C07BD4680BC68
S31520000660704700BF80B582B000AF0346FB714FF0E4
S315200006701400FFF7BBFF42F20003CEF2040342F25E
S315200006800002CEF20402126B22F040021A6345F2F7
S315200006900003C4F200034FF000025A6540F2000343
S315200006A0C4F20A234FF00002C3F8802140F200036F
S315200006B0C4F20A234FF00002C3F8882140F2000357
S315200006C0C4F20A23FA79C3F8842145F20003C4F25E
S315200006D000034FF001021A614FF01400FFF7A4FF48
S315200006E007F10807BD4680BD80B400AF40F2000385
S315200006F0C4F20A234FF00102C3F88021BD4680BC14
S31520000700704700BF80B483B000AF786045F2000325
S31520000710C4F200037A689A6007F10C07BD4680BCD4
S31520000720704700BF80B500AF40F20003C4F20A2331
S315200007304FF00102C3F888214FF01400FFF73AFF6B
S3152000074080BD00BF80B500AF45F20003C4F20003B0
S315200007504FF001021A614FF01400FFF765FF80BDCC
S3152000076080B584B000AF48F69473C2F200031A68CD
S3152000077049F2A473C2F20003198848F69873C2F2AC
S31520000780000323F8121048F69473C2F200031B6884
S3152000079003F1010248F69473C2F200031A6048F688
S315200007A09473C2F200031A6840F2E7339A4206DDD8
S315200007B048F69473C2F200034FF000021A604FF01D
S315200007C000037B604FF000033B600EE03A6848F67A
S315200007D09873C2F2000333F812301BB27A681344BE
S315200007E07B603B6803F101033B603A6840F2E733E4
S315200007F09A42EBDD7A6844F6D353C1F2620383FB57
S3152000080002134FEAA3114FEAE273C3EB0103184622
S3152000081001F0D4FD0346BB60B8680D4901F022FE05
S31520000820034618460B4901F0D1FE0346FB60F868E3
S3152000083001F0B6FC02460B4648F20870C2F20000F0
S3152000084001F088FFFFF77EFF07F11007BD4680BD48
S315200008500000B4420000804680B500AF01F0AAF93E
S315200008604FF000004FF0050101F0DAF949F63C009F
S31520000870C2F200004FF0D0014FF0000200F004FC5D
S31520000880FFF70EFE4FF00000FFF7ECFEFFF74AFFE2
S315200008904FF47A70FFF736FFFFF726FFFFF70AFEC1
S315200008A003469AB249F2A473C2F200031A80F5E70E
S315200008B080B483B000AF78604FF0FF33184607F15D
S315200008C00C07BD4680BC704780B483B000AF78600B
S315200008D0FEE700BF80B483B000AF786039603B6824
S315200008E04FF400525A604FF00003184607F10C07E8
S315200008F0BD4680BC704700BF80B483B000AF78602F
S315200009004FF00103184607F10C07BD4680BC70471F
S3152000091080B485B000AFF860B9607A604FF000030C
S31520000920184607F11407BD4680BC704780B485B0D1
S3152000093000AFF860B9607A604FF00003184607F1FF
S315200009401407BD4680BC704780B584B000AFF86000
S31520000950B9607A603B6049F26873C2F200031B6893
S31520000960002B10D149F2D070C2F200004FF4614141
S315200009704FF0030200F07EF849F26873C2F20003DA
S315200009804FF001021A603B6849F2D070C2F20000B3
S3152000099079681A4600F070F93B68184607F1100787
S315200009A0BD4680BD80B584B000AF786049F26C73D7
S315200009B0C2F200031B68002B08D149F26C73C2F205
S315200009C0000349F68802C2F200021A6049F26C73EB
S315200009D0C2F200031B68BB60EFF30883FB6049F299
S315200009E06C73C2F200031A687B681A44FB689A4249
S315200009F00FD94FF000004FF0010148F21472C2F2F5
S31520000A0000024FF01903FFF79FFF4FF00100FFF799
S31520000A105BFF49F26C73C2F200031A687B681A44C2
S31520000A2049F26C73C2F200031A60BB68184607F1DC
S31520000A301007BD4680BD00BF80B483B000AF03461B
S31520000A40FB804EF20013CEF20003B7F906204FEAE0
S31520000A505212F98801F01F014FF0010000FA01F14E
S31520000A6002F1600243F8221007F10C07BD4680BC54
S31520000A70704700BF80B588B000AFF860B9601346F4
S31520000A80FB714FF00103FB824FF00003BB61FA6854
S31520000A9049F2D073C2F200039A4207D0FA6849F2AB
S31520000AA0A873C2F200039A4200D000BEBB68002B96
S31520000AB000D100BE01F0F4F8FA6849F2D073C2F210
S31520000AC000039A422ED1FB684FF080421A60FB68E1
S31520000AD04FF084425A60FB684FF00A021A8148F6AA
S31520000AE07C23C2F200031B68BB6142F20003CEF2F4
S31520000AF0040342F20002CEF20402126B42F080029C
S31520000B001A634FF00A00FFF797FF42F20003CEF276
S31520000B10040342F20002CEF20402126B22F080029B
S31520000B201A6331E0FA6840F20003C4F2010313604D
S31520000B30FA6840F20003C4F220235360FB684FF0AA
S31520000B400B021A8148F68023C2F200031B68BB61A0
S31520000B5042F20003CEF2040342F20002CEF2040275
S31520000B60126B42F480721A634FF00B00FFF764FF9A
S31520000B7042F20003CEF2040342F20002CEF2040255
S31520000B80126B22F480721A63FB681B684FF0000216
S31520000B901A71BB68002B21D0BA69BB68B2FBF3F38C
S31520000BA0FB61FB6903F00803002B06D0FB694FEAC3
S31520000BB0131303F10103FB6103E0FB694FEA1313EF
S31520000BC0FB61FA694FF6FF739A4200D900BEFA69B3
S31520000BD04FF6FF739A4201D8FB69FB82FB685B687C
S31520000BE04FF00102C3F89C21FB681B68FA8A4FEA82
S31520000BF0122292B2D2B21A71FB681B68FA8AD2B25A
S31520000C001A70FB685B684FF00002C3F89C21FB68F2
S31520000C101B68FA791A73FB681B684FF00E021A726A
S31520000C20FB685B684FF00002C3F81022FB684FF0A8
S31520000C3000021A61FB684FF00002DA60FB684FF091
S31520000C4000025A61FB684FF00002DA61FA6840F64A
S31520000C507963C2F200031362FB684FF000029A61C7
S31520000C60FB684FF000025A62FB684FF000029A724E
S31520000C7007F12007BD4680BD80B489B000AFF8607B
S31520000C80B9607A604FF000033B61FA6849F2D0738D
S31520000C90C2F200039A4207D0FA6849F2A873C2F258
S31520000CA000039A4200D000BEBB68002B00D100BED4
S31520000CB07B68002B00D100BEFA6849F2D073C2F2DD
S31520000CC000039A4206D0FA6849F2A873C2F20003DA
S31520000CD09A423DD1BB68002B3AD07B68002B37D097
S31520000CE0FB681B681B7DFB76FB689A7AFB7E42EAD3
S31520000CF00303DAB2FB689A72FB7E03F02003002B13
S31520000D0023D04FF01003FB617B680F2B01D87B6843
S31520000D10FB614FF000037B610EE0FB681B68B9683E
S31520000D203A690A4412781A703B6903F101033B6160
S31520000D307B6903F101037B617A69FB699A42ECD3F3
S31520000D407A687B69C3EB02037B607B68002BC7D183
S31520000D5007F12407BD4680BC704700BF80B584B02C
S31520000D6000AF78607A6849F2D073C2F200039A42E3
S31520000D7007D07A6849F2A873C2F200039A4200D0DB
S31520000D8000BE7A6849F2D073C2F200039A4206D0B6
S31520000D907A6849F2A873C2F200039A4267D17B6847
S31520000DA01B681B7ADBB203F00F03FB73FB7B0C2B58
S31520000DB054D801A252F823F0ED0D00205D0E00203C
S31520000DC0090E00205D0E0020250E00205D0E00205D
S31520000DD0410E00205D0E00205D0E00205D0E0020DD
S31520000DE05D0E00205D0E0020250E00207B685B6ACC
S31520000DF0002B00D100BE7B685B6A002B30D07B685D
S31520000E005B6A7868984732E07B681B6A002B00D1C2
S31520000E1000BE7B681B6A002B24D07B681B6A78681F
S31520000E20984724E07B68DB69002B00D100BE7B68F5
S31520000E30DB69002B18D07B68DB697868984716E059
S31520000E407B689B69002B00D100BE7B689B69002BC9
S31520000E500CD07B689B697868984708E000BE06E05E
S31520000E6000BF04E000BF02E000BF00E000BF07F1C2
S31520000E701007BD4680BD00BF80B487B000AF786044
S31520000E807A6849F2D073C2F200039A4207D07A6890
S31520000E9049F2A873C2F200039A4200D000BE7B68D2
S31520000EA0DB68002B00D100BE7B681B69002B00D1BC
S31520000EB000BE7A6849F2D073C2F200039A4206D085
S31520000EC07A6849F2A873C2F200039A4252D17B682B
S31520000ED0DB68002B4ED07B681B69002B4AD07B68D1
S31520000EE01B681B7DFB727B689A7AFB7A42EA0303B6
S31520000EF0DAB27B689A72FB7A03F02003002B29D0A2
S31520000F004FF010033B617B681A697B685B69C3EB12
S31520000F1002037B617B690F2B01D87B693B614FF014
S31520000F200003FB6012E07B681B687A68D1687A68E8
S31520000F3052690A4412781A707B685B6903F10102D0
S31520000F407B685A61FB6803F10103FB60FA683B6921
S31520000F509A42E8D37B685A697B681B699A4209D111
S31520000F607B684FF000021A617B685B684FF00002D5
S31520000F70C3F8842007F11C07BD4680BC704700BF1C
S31520000F80684620F007018D4689B500AF49F2D0703A
S31520000F90C2F20000FFF7E2FE4FF00A00FFF74CFD19
S31520000FA0BD46BDE889408546704700BF684620F0AB
S31520000FB007018D4689B500AF49F2A870C2F200003C
S31520000FC0FFF7CCFE4FF00B00FFF736FDBD46BDE820
S31520000FD089408546704700BF80B483B000AF034682
S31520000FE0FB804EF20013CEF20003B7F906204FEA3B
S31520000FF05212F98801F01F014FF0010000FA01F1A9
S3152000100043F8221007F10C07BD4680BC704700BF8D
S3152000101080B483B000AF0346FB804EF20013CEF2BD
S315200010200003B7F906204FEA5212F98801F01F0192
S315200010304FF0010000FA01F102F1200243F82210DC
S3152000104007F10C07BD4680BC704700BF80B483B053
S3152000105000AF0346FB804EF20013CEF20003B7F931
S3152000106006204FEA5212F98801F01F014FF00100C5
S3152000107000FA01F102F1600243F8221007F10C0791
S31520001080BD4680BC704700BF80B584B000AF786095
S3152000109013460A46FA70BB70BB78FB607A6849F241
S315200010A0F873C2F200039A4207D07A6849F63C03E5
S315200010B0C2F200039A4200D000BE7A6849F2F87361
S315200010C0C2F200039A422CD17B684FF00E025A825C
S315200010D07A6842F20003C4F2000353617A6840F250
S315200010E00003C4F20423936142F20003CEF2040308
S315200010F042F20002CEF20402126B42F400621A633C
S315200011004FF00E00FFF7A2FF42F20003CEF20403D7
S3152000111042F20002CEF20402126B22F400621A633B
S315200011202BE07B684FF011025A827A6842F2000364
S31520001130C4F2010353617A6840F20003C4F2242307
S31520001140936142F20003CEF2040342F20002CEF291
S315200011500402126B42F480521A634FF01100FFF71B
S3152000116075FF42F20003CEF2040342F20002CEF2F1
S315200011700402126B22F480521A637B684FF000023D
S315200011801A72FA787B681A607B684FF00002DA617F
S315200011907B684FF000021A627B684FF000025A62A9
S315200011A07B684FF00002DA627B684FF000021A6318
S315200011B07B684FF000025A637B684FF0000283F889
S315200011C038207B684FF00002DA607B684FF000021F
S315200011D01A647B684FF00002DA637B689B694FF0E4
S315200011E001029A617B689B69FA684FEA920202F0D3
S315200011F00102DA617B689B69FA684FEA520202F0C3
S3152000120001025A607B689B69FA6802F001021A6043
S315200012107B685B697A681268D2B21A7307F1100785
S31520001220BD4680BD80B586B000AFF8607A600A46BC
S31520001230FA727B80FA6849F2F873C2F200039A4286
S3152000124007D0FA6849F63C03C2F200039A4200D05E
S3152000125000BE00F04BFC03467B61FB684FF00102A9
S315200012601A72FA7AFB685A60FB684FF000029A629B
S31520001270FB687A68DA617A88FB681A62FB684FF045
S3152000128000025A62FB684FF0010283F83820FB689F
S3152000129097F820201A74FB689B69DB68FB74FB684F
S315200012A09B694FF001025A61FB7C002B0AD0FB6838
S315200012B09B694FF00002DA60FB685B8A1BB2184616
S315200012C0FFF7C4FEFB685B691B79BB74FB685B8A0E
S315200012D01BB21846FFF780FE786900F015FC07F16F
S315200012E01807BD4680BD00BF80B588B000AFF86046
S315200012F07A600A46FA727B80FA6849F2F873C2F27B
S3152000130000039A4207D0FA6849F63C03C2F200036A
S315200013109A4200D000BE7B88002B45D000F0E6FB29
S315200013200346BB61FB684FF002021A72FA7AFB6829
S315200013305A60FB684FF001029A62FB687A68DA62AB
S315200013407A88FB681A63FB684FF000025A63FB68D1
S315200013504FF0010283F83820FB6897F828201A748A
S31520001360FB689B69DB68FB77FB689B694FF0010292
S315200013705A61FB7F002B0AD0FB689B694FF0000265
S31520001380DA60FB685B8A1BB21846FFF75FFEFB68D4
S315200013905B691B79FB75FB685B8A1BB21846FFF7F6
S315200013A01BFEB86900F0B0FB07F12007BD4680BDE3
S315200013B080B483B000AF78607A6849F2F873C2F2DD
S315200013C000039A4207D07A6849F63C03C2F200032A
S315200013D09A4200D000BE7B6893F83830DBB2012BEE
S315200013E0F9D07B6893F83830DBB2184607F10C0742
S315200013F0BD4680BC704700BF80B584B000AF786022
S315200014004FF00103BB737A6849F2F873C2F2000306
S315200014109A4207D07A6849F63C03C2F200039A4200
S3152000142000D000BE7B685B691B79FB72FB7ADBB25E
S31520001430A3F10803D02B00F2488301A252F823F02F
S3152000144085170020CB1A0020CB1A0020CB1A0020AB
S31520001450CB1A0020CB1A0020CB1A0020CB1A002052
S3152000146085170020CB1A0020CB1A0020CB1A00208B
S31520001470CB1A0020CB1A0020CB1A0020CB1A002032
S31520001480C5170020CB1A0020CB1A0020CB1A00202B
S31520001490CB1A0020CB1A0020CB1A0020CB1A002012
S315200014A0FB170020CB1A0020CB1A0020CB1A0020D5
S315200014B0CB1A0020CB1A0020CB1A0020CB1A0020F2
S315200014C011180020CB1A0020CB1A0020CB1A00209E
S315200014D0CB1A0020CB1A0020CB1A0020CB1A0020D2
S315200014E08F180020CB1A0020CB1A0020CB1A002000
S315200014F0CB1A0020CB1A0020CB1A0020CB1A0020B2
S31520001500B9170020CB1A0020CB1A0020CB1A0020B6
S31520001510CB1A0020CB1A0020CB1A0020CB1A002091
S31520001520A5180020CB1A0020CB1A0020CB1A0020A9
S31520001530CB1A0020CB1A0020CB1A0020CB1A002071
S31520001540C5180020CB1A0020CB1A0020CB1A002069
S31520001550CB1A0020CB1A0020CB1A0020CB1A002051
S31520001560DB180020CB1A0020CB1A0020CB1A002033
S31520001570CB1A0020CB1A0020CB1A0020CB1A002031
S3152000158015190020CB1A0020CB1A0020CB1A0020D8
S31520001590CB1A0020CB1A0020CB1A0020CB1A002011
S315200015A093190020CB1A0020CB1A0020CB1A00203A
S315200015B0CB1A0020CB1A0020CB1A0020CB1A0020F1
S315200015C0CB1A0020CB1A0020CB1A0020CB1A0020E1
S315200015D0CB1A0020CB1A0020CB1A0020CB1A0020D1
S315200015E0CB1A0020CB1A0020CB1A0020CB1A0020C1
S315200015F0CB1A0020CB1A0020CB1A0020CB1A0020B1
S31520001600CB1A0020CB1A0020CB1A0020CB1A0020A0
S31520001610CB1A0020CB1A0020CB1A0020CB1A002090
S31520001620AD190020CB1A0020CB1A0020CB1A00209F
S31520001630CB1A0020CB1A0020CB1A0020CB1A002070
S315200016406B190020CB1A0020CB1A0020CB1A0020C1
S31520001650CB1A0020CB1A0020CB1A0020CB1A002050
S31520001660AD190020CB1A0020CB1A0020CB1A00205F
S31520001670CB1A0020CB1A0020CB1A0020CB1A002030
S315200016806B190020CB1A0020CB1A0020CB1A002081
S31520001690CB1A0020CB1A0020CB1A0020CB1A002010
S315200016A0F7190020CB1A0020CB1A0020CB1A0020D5
S315200016B0CB1A0020CB1A0020CB1A0020CB1A0020F0
S315200016C0651A0020CB1A0020CB1A0020CB1A002046
S315200016D0CB1A0020CB1A0020CB1A0020CB1A0020D0
S315200016E0651A0020CB1A0020CB1A0020CB1A002026
S315200016F0CB1A0020CB1A0020CB1A0020CB1A0020B0
S31520001700651A0020CB1A0020CB1A0020CB1A002005
S31520001710CB1A0020CB1A0020CB1A0020CB1A00208F
S31520001720BB1A0020CB1A0020CB1A0020CB1A00208F
S31520001730CB1A0020CB1A0020CB1A0020CB1A00206F
S31520001740CB1A0020CB1A0020CB1A0020CB1A00205F
S31520001750CB1A0020CB1A0020CB1A0020CB1A00204F
S31520001760CB1A0020CB1A0020CB1A0020CB1A00203F
S31520001770CB1A0020CB1A0020CB1A0020CB1A00202F
S31520001780CB1A00207B689B694FF000025A617B6868
S315200017905B697A685268D2B21A727B689B697A68EA
S315200017A0926AC3F800217B684FF000025A627B6878
S315200017B04FF000025A6388E17B689B694FF0010273
S315200017C05A6182E17B685A6A7B681B6A9A420DD20B
S315200017D07B685A697B68D9697B685B6A1944097892
S315200017E0117203F101027B685A626EE17B685B8AA3
S315200017F01BB21846FFF70CFC67E17B689B694FF02C
S3152000180001021A617B684FF0020283F838205CE1FE
S315200018107B685A6A7B681B6A9A420DD27B685A6932
S315200018207B68D9697B685B6A19440978117203F170
S3152000183001027B685A6248E17B681B7A032B09D137
S315200018407B684FF001029A627B689B694FF0010228
S315200018505A613AE17B681B7C03F001037B737B7B37
S31520001860002B05D17B689B694FF001021A6108E0C5
S315200018707B685B8A1BB21846FFF7CAFB4FF0000352
S31520001880BB737B684FF0000283F838201DE17B682C
S315200018909B694FF001021A617B684FF0020283F8C0
S315200018A0382012E17B681B6B012B05D97B689B696D
S315200018B04FF001029A6008E17B689B694FF00002B5
S315200018C09A6002E17B689B694FF001021A617B688E
S315200018D04FF0020283F83820F7E07B68DA6A7B68EB
S315200018E05B6B1A4479684969097AC9B2117003F1A8
S315200018F001027B685A637B685A6B7B681B6B03F11A
S31520001900FF339A42C0F0DE807B689B694FF000026D
S315200019109A60DAE07B68DA6A7B685B6B1A447968DE
S315200019204969097AC9B2117003F101027B685A63C9
S315200019307B681B7C03F001037B737B7B002B05D12B
S315200019407B689B694FF001021A6108E07B685B8A1D
S315200019501BB21846FFF75CFB4FF00003BB737B6896
S315200019604FF0000283F83820AFE07B68DB6A002B5B
S3152000197009D07B68DA6A7B685B6B13447A685269A4
S31520001980127AD2B21A707B689B694FF001029A6074
S315200019909BE07B684FF004021A727B684FF00002CE
S315200019A05A637B684FF00002DA608EE07B685A6BE0
S315200019B07B681B6BA3F102039A4204D37B689B6965
S315200019C04FF000029A607B685B691B7A3B737B68E9
S315200019D0DA6A7B685B6B1A44397B117003F101026A
S315200019E07B685A637B68DB684FEA03223B7B1A4499
S315200019F07B68DA6069E07B681B7A042B2CD17B68D4
S31520001A005A6B7B68DB6B9A4208D17B684FF00602E3
S31520001A101A727B68DA687B685A621DE07B681B6CE9
S31520001A20002B19D07B681B6C7A68D16A7A68526B56
S31520001A3092B20846114698470346FB73FB7B002B60
S31520001A4005D17B689B694FF001029A6004E07B68B0
S31520001A509B694FF000029A607B684FF0000283F882
S31520001A60382032E0FB7ADBB2A82B07D17B684FF017
S31520001A7005021A727B684FF00002DA607B685A69A9
S31520001A807B68D9697B685B6A19440978117203F10E
S31520001A9001027B685A627B685A6A7B681B6A03F17B
S31520001AA0FF339A4210D37B689B694FF000029A60FD
S31520001AB07B684FF000025A6207E07B684FF0000215
S31520001AC05A6202E000BF00E000BFBB7B002B04D0BF
S31520001AD07B689B694FF00002DA607B685B691B7943
S31520001AE0FB7207F11007BD4680BD00BF80B582B0EE
S31520001AF000AF00F0B3F803467B607B68184607F119
S31520001B000807BD4680BD00BF80B582B000AF7860B3
S31520001B10786800F0B3F807F10807BD4680BD00BF1E
S31520001B20684620F007018D4689B500AF49F2F87066
S31520001B30C2F20000FFF760FC4FF00E00FFF786FAB6
S31520001B40BD46BDE889408546704700BF684620F0FF
S31520001B5007018D4689B500AF49F63C00C2F2000068
S31520001B60FFF74AFC4FF01100FFF770FABD46BDE8BB
S31520001B7089408546704700BF80B483B000AF0346D6
S31520001B80FB804EF20013CEF20003B7F906204FEA8F
S31520001B905212F98801F01F014FF0010000FA01F1FD
S31520001BA002F1600243F8221007F10C07BD4680BC03
S31520001BB0704700BF80B582B000AF42F20003CEF27C
S31520001BC0040342F20002CEF20402126B42F4804277
S31520001BD01A634FF000037B600EE07A6848F2B07318
S31520001BE0C2F2000333F812301BB21846FFF7C4FFC7
S31520001BF07B6803F101037B607B681F2BEDD942F2E2
S31520001C000003CEF2040342F20002CEF20402126B6B
S31520001C1022F480421A6307F10807BD4680BD00BF43
S31520001C2080B485B000AF03463960FB71FB79FB6059
S31520001C30FB681F2B00D900BEFB681F2B08D8FA684B
S31520001C4048F23073C2F2000353F822303A681A6021
S31520001C5007F11407BD4680BC704700BF80B483B02F
S31520001C6000AF4FF000037B60EFF310837B607B684F
S31520001C70184607F10C07BD4680BC704780B483B078
S31520001C8000AF78607B6883F3108807F10C07BD46A8
S31520001C9080BC704780B400AFBD4680BC704700BF93
S31520001CA080B58AB000AF48F2F073C2F20003BC469A
S31520001CB00FCB8CE80F0042F20003CEF204039B6C9C
S31520001CC04FEA930303F003034FEA830307F1280245
S31520001CD0134453F8283C3B6142F20003CEF204033E
S31520001CE09B6C4FEA131303F003034FEA830307F1B8
S31520001CF02802134453F8283C7B6142F20003CEF2BB
S31520001D0004039B6C4FEA931303F003034FEA830308
S31520001D1007F12802134453F8283CBB6142F2000322
S31520001D20CEF20403DB6C4FEA132303F01F033B625E
S31520001D3042F20003CEF20403DB6C4FEA533303F086
S31520001D4001037B623B6A03F10103FB617B6A002B83
S31520001D5003D0FB694FEA4303FB6100F049F80246D2
S31520001D6048F67823C2F200031A6048F67823C2F2B6
S31520001D7000031A683B69B2FBF3F248F67C23C2F2F1
S31520001D8000031A6048F67823C2F200031A687B69BA
S31520001D90B2FBF3F248F68023C2F200031A6048F63B
S31520001DA07823C2F200031A68BB69B2FBF3F248F645
S31520001DB08423C2F200031A6048F67823C2F2000395
S31520001DC01A68FB69B2FBF3F248F68823C2F20003D5
S31520001DD01A6048F67823C2F200031A6848F674237C
S31520001DE0C2F200031A6007F12807BD4680BD00BF76
S31520001DF080B48BB000AF4FF000037B6040F61C032D
S31520001E00C6F20803BB6040F23023C6F20803FB602B
S31520001E10FB681B6823F070433B613A6941F2CF139C
S31520001E20C0F2A1539A4208D14EF62C73C6F2010392
S31520001E307B617B691B687B603DE0BB681A6844F266
S31520001E404133C4F654439A4235D140F64003C6F294
S31520001E500803BB61BB691B68FB61FB6923F07F43F9
S31520001E60FB61FA6940F20033C0F201039A4222D99B
S31520001E70FA694FF6FF73C0F201039A4208D841F27D
S31520001E802C63C6F208033B623B6A1B687B6012E048
S31520001E90FA694FF6FF73C0F202039A4208D841F658
S31520001EA0AC63C6F208037B627B6A1B687B6002E038
S31520001EB04FF000037B607B68002B05D100BE47F600
S31520001EC04003C0F27D137B607B68184607F12C0720
S31520001ED0BD4680BC704700BF81F0004102E000BFD4
S31520001EE083F0004330B54FEA41044FEA430594EAB4
S31520001EF0050F08BF90EA020F1FBF54EA000C55EAEF
S31520001F00020C7FEA645C7FEA655C00F0E2804FEABF
S31520001F105454D4EB5555B8BF6D420CDD2C4480EAA1
S31520001F20020281EA030382EA000083EA010180EAD1
S31520001F30020281EA0303362D88BF30BD11F0004F1F
S31520001F404FEA01314FF4801C4CEA113102D0404255
S31520001F5061EB410113F0004F4FEA03334CEA133390
S31520001F6002D0524263EB430394EA050F00F0A780A8
S31520001F70A4F10104D5F1200E0DDB02FA0EFC22FAA3
S31520001F8005F2801841F1000103FA0EF2801843FA97
S31520001F9005F359410EE0A5F120050EF1200E012A88
S31520001FA003FA0EFC28BF4CF0020C43FA05F3C018C6
S31520001FB051EBE37101F0004507D54FF0000EDCF13F
S31520001FC0000C7EEB00006EEB0101B1F5801F1BD3E8
S31520001FD0B1F5001F0CD349085FEA30004FEA3C0CEC
S31520001FE004F101044FEA445212F5800F80F09A80E2
S31520001FF0BCF1004F08BF5FEA500C50F1000041EBE6
S31520002000045141EA050130BD5FEA4C0C404141EBE9
S31520002010010111F4801FA4F10104E9D191F0000F10
S3152000202004BF01460020B1FA81F308BF2033A3F193
S315200020300B03B3F120020CDA0C3208DD02F1140C8A
S31520002040C2F10C0201FA0CF021FA02F10CE002F1C5
S315200020501402D8BFC2F1200C01FA02F120FA0CFCBE
S31520002060DCBF41EA0C019040E41AA2BF01EB045107
S31520002070294330BD6FEA04041F3C1CDA0C340EDC05
S3152000208004F11404C4F1200220FA04F001FA02F348
S3152000209040EA030021FA04F345EA030130BDC4F106
S315200020A00C04C4F1200220FA02F001FA04F340EAFB
S315200020B00300294630BD21FA04F0294630BD94F0AC
S315200020C0000F83F4801306BF81F480110134013D93
S315200020D04EE77FEA645C18BF7FEA655C29D094EA04
S315200020E0050F08BF90EA020F05D054EA000C04BF82
S315200020F01946104630BD91EA030F1EBF002100206D
S3152000210030BD5FEA545C05D14000494128BF41F00B
S31520002110004130BD14F580043CBF01F5801130BD6F
S3152000212001F0004545F0FE4141F470014FF00000FA
S3152000213030BD7FEA645C1ABF194610467FEA655CAB
S315200021401CBF0B46024650EA013406BF52EA03354D
S3152000215091EA030F41F4002130BD00BF90F0000F3B
S3152000216004BF0021704730B54FF4806404F1320477
S315200021704FF000054FF0000150E700BF90F0000F30
S3152000218004BF0021704730B54FF4806404F1320457
S3152000219010F0004548BF40424FF000013EE700BF27
S315200021A042004FEAE2014FEA31014FEA02701FBFB7
S315200021B012F07F4393F07F4F81F06051704792F089
S315200021C0000F14BF93F07F4F704730B54FF4607403
S315200021D001F0004521F0004120E700BF50EA01024E
S315200021E008BF704730B54FF000050AE050EA0102FB
S315200021F008BF704730B511F0004502D5404261EB6B
S3152000220041014FF4806404F132045FEA915C3FF4AB
S31520002210DCAE4FF003025FEADC0C18BF03325FEA44
S31520002220DC0C18BF033202EBDC02C2F1200300FAF9
S3152000223003FC20FA02F001FA03FE40EA0E0021FA1E
S3152000224002F11444C1E600BF80F0004002E000BF66
S3152000225081F0004142001FBF5FEA410392EA030F6B
S315200022607FEA226C7FEA236C6AD04FEA1262D2EBB5
S315200022701363C1BFD218414048404140B8BF5B42BA
S31520002280192B88BF704710F0004F40F4000020F053
S315200022907F4018BF404211F0004F41F4000121F069
S315200022A07F4118BF494292EA030F3FD0A2F10102B3
S315200022B041FA03FC10EB0C00C3F1200301FA03F1F1
S315200022C000F0004302D5494260EB4000B0F5000F14
S315200022D013D3B0F1807F06D340084FEA310102F1D3
S315200022E00102FE2A51D2B1F1004F40EBC25008BF85
S315200022F020F0010040EA03007047490040EB00004F
S3152000230010F4000FA2F10102EDD1B0FA80FCACF17D
S31520002310080CB2EB0C0200FA0CF0AABF00EBC2507C
S3152000232052421843BCBFD0401843704792F0000F6A
S3152000233081F4000106BF80F400000132013BB5E7BD
S315200023404FEA41037FEA226C18BF7FEA236C21D033
S3152000235092EA030F04D092F0000F08BF0846704798
S3152000236090EA010F1CBF0020704712F07F4F04D166
S31520002370400028BF40F00040704712F100723CBF79
S3152000238000F50000704700F0004343F0FE4040F4A3
S31520002390000070477FEA226216BF08467FEA236361
S315200023A00146420206BF5FEA412390EA010F40F44C
S315200023B0800070474FF0000304E000BF10F0004398
S315200023C048BF40425FEA000C08BF704743F096437F
S315200023D001464FF000001CE050EA010208BF70479A
S315200023E04FF000030AE000BF50EA010208BF704721
S315200023F011F0004302D5404261EB41015FEA010C36
S3152000240002BF84460146002043F0B64308BFA3F12D
S315200024108053A3F50003BCFA8CF2083AA3EBC2530F
S3152000242010DB01FA02FC634400FA02FCC2F120022E
S31520002430BCF1004F20FA02F243EB020008BF20F065
S315200024400100704702F1200201FA02FCC2F12002CB
S3152000245050EA4C0021FA02F243EB020008BF20EAC0
S31520002460DC7070474FF0FF0C1CEAD0521EBF1CEAEE
S31520002470D15392EA0C0F93EA0C0F6FD01A4480EADC
S31520002480010C400218BF5FEA41211ED04FF00063C5
S3152000249043EA501043EA5111A0FB01310CF00040F1
S315200024A0B1F5000F3EBF490041EAD3715B0040EA17
S315200024B0010062F17F02FD2A1DD8B3F1004F40EBE7
S315200024C0C25008BF20F00100704790F0000F0CF0BA
S315200024D0004C08BF49024CEA502040EA51207F3A7E
S315200024E0C2BFD2F1FF0340EAC250704740F4000059
S315200024F04FF00003013A5DDC12F1190FDCBF00F04A
S3152000250000407047C2F10002410021FA02F1C2F1F7
S31520002510200200FA02FC5FEA310040F1000053EA93
S315200025204C0308BF20EADC70704792F0000F00F0E1
S31520002530004C02BF400010F4000F013AF9D040EAE7
S315200025400C0093F0000F01F0004C02BF490011F47B
S31520002550000F013BF9D041EA0C018FE70CEAD15379
S3152000256092EA0C0F18BF93EA0C0F0AD030F0004CF9
S3152000257018BF31F0004CD8D180EA010000F00040AD
S31520002580704790F0000F17BF90F0004F084691F06B
S31520002590000F91F0004F14D092EA0C0F01D14202A5
S315200025A00FD193EA0C0F03D14B0218BF084608D16E
S315200025B080EA010000F0004040F0FE4040F40000B8
S315200025C0704740F0FE4040F4400070474FF0FF0C4B
S315200025D01CEAD0521EBF1CEAD15392EA0C0F93EA92
S315200025E00C0F69D0A2EB030280EA010C49024FEAE4
S315200025F0402037D04FF0805343EA111143EA10139D
S315200026000CF000408B4238BF5B0042F17D024FF454
S31520002610000C8B4224BF5B1A40EA0C00B3EB510F2F
S3152000262024BFA3EB510340EA5C00B3EB910F24BF18
S31520002630A3EB910340EA9C00B3EBD10F24BFA3EB9D
S31520002640D10340EADC001B0118BF5FEA1C1CE0D165
S31520002650FD2A3FF650AF8B4240EBC25008BF20F018
S31520002660010070470CF0004C4CEA50207F32C2BF6C
S31520002670D2F1FF0340EAC250704740F400004FF009
S315200026800003013A37E792F0000F00F0004C02BF3A
S31520002690400010F4000F013AF9D040EA0C0093F004
S315200026A0000F01F0004C02BF490011F4000F013B5E
S315200026B0F9D041EA0C0195E70CEAD15392EA0C0FC6
S315200026C008D142027FF47DAF93EA0C0F7FF470AFFE
S315200026D0084676E793EA0C0F04D14B023FF44CAF41
S315200026E008466EE730F0004C18BF31F0004CCAD1D6
S315200026F030F000427FF45CAF31F000437FF43CAF12
S315200027005FE700BF70B548F6602648F66025C2F23E
S315200027100006C2F20005761BB61006D0002455F836
S31520002720243001349847A642F9D848F6602548F661
S315200027306426C2F20005C2F20006761B06F084F972
S31520002740B61006D0002455F8243001349847A64206
S31520002750F9D870BD0FB448F68C23C2F2000310B529
S315200027601C6882B024B1A36913B9204602F094FEF6
S31520002770204605AC049A23468168019400F02AF885
S3152000278002B0BDE8104004B0704700BF0EB410B5CB
S31520002790044683B018B183690BB902F07DFE20464A
S315200027A006AC059A23468168019400F013F803B01D
S315200027B0BDE8104003B07047936810B5144613B9AE
S315200027C05360184610BD02F0CBFF00236360A36060
S315200027D010BD00BF2DE9F04FADF5AE6D83B00E46AE
S315200027E015469A46814603F0ABF900681D90B9F16B
S315200027F0000F04D0D9F81830002B00F05A8148F683
S315200028007C03C2F200039E4208BFD9F8046010D0B0
S3152000281048F69C03C2F200039E4208BFD9F808601E
S3152000282007D048F6BC03C2F200039E4208BFD9F87F
S315200028300C60B6F80CC01FFA8CF313F4005F09D1B4
S315200028404CF4005C726EA6F80CC01FFA8CF322F4CE
S315200028500052726613F0080F01F001833269002AD4
S3152000286001F0FD8203F01A030A2B00F0E08000221B
S3152000287012921A9200231C920DF59C641192043434
S3152000288019920DF5A4621B9304320DF5906328323C
S315200028900333189207930023CDF84C45CDF85035D5
S315200028A0CDF854352B781A1E18BF0122252B0CBFC4
S315200028B0002202F0010232B32F4617F8013F1A1EFA
S315200028C018BF0122252B0CBF002202F00102002A8C
S315200028D0F3D1B7EB050808BF3D4614D0C4F80480F1
S315200028E0DDF85035DDF8542501332560072B4244A9
S315200028F0CDF85035CDF8542578DC083411983D466E
S31520002900404411903B78002B7CD06B1C4FF0FF3756
S315200029102B204FF0200C00214FF000020F918DF854
S315200029207725CDF82CA06A780A915D1CA2F12003A8
S31520002930582B00F28682DFE813F098028402840284
S31520002940A402840284028402840284028402AD02E8
S31520002950BA028402C102CA028402E702F002F0022D
S31520002960F002F002F002F002F002F002F00284021D
S315200029708402840284028402840284028402840201
S31520002980840204032603840226038402840284022A
S3152000299084026A03840284028104840284028402FB
S315200029A0840284021404840284022F048402840292
S315200029B084028402840284028402840284028402C1
S315200029C04F04650426032603260373036504840245
S315200029D084027903840285039603AD030A048402E4
S315200029E0CC038402F40384028402C0000DF5A8629D
S315200029F0484631460C32FFF7DFFE58B90DF59C6488
S31520002A0004347BE7DDF85435002B41F09281002316
S31520002A10CDF85035B38913F0400F02D04FF0FF3078
S31520002A20119011985FB00DF5806DBDE8F08FB6F965
S31520002A300E30002BFFF61BAF376A2CF0020CD6F8AF
S31520002A4028E00DF58E64ADF888C40C34B6F80EC0B7
S31520002A502A465346484621461FADCDF89C7400278A
S31520002A60CDF88C54CDF87C544FF48065CDF8A4E491
S31520002A70ADF88AC4CDF89054CDF89474CDF884542A
S31520002A80FFF7A8FE0028119009DB2146484602F0F0
S31520002A9093FB1199B84218BF4FF0FF311191BDF841
S31520002AA0883413F0400FBCD0B38943F04003B38180
S31520002AB0B7E7484602F0F0FCA1E60A9848F64C0C27
S31520002AC0C2F2000C169210F0200FCDF864C000F070
S31520002AD06E830B99CB1D23F0070303F108020B929B
S31520002AE0D3E900AB5AEA0B020A9B0CBF0022012253
S31520002AF0134240F06B8602234FF000018DF87715C4
S31520002B00002FA2BFDDF828C02CF0800CCDF828C0FD
S31520002B10002F18BF42F00102002A00F01E84012B6C
S31520002B2000F0DE85022B00F0C185189913914FEA3B
S31520002B30DA084FEADB0C48EA4B780AF00700E3464E
S31520002B40C24630305AEA0B0201F8010DEFD1DDF80A
S31520002B5028C013911CF0010F40F08C861898401A5B
S31520002B6010909DF87735109A1797BA42B8BF3A4613
S31520002B700C9213B10C9A01320C920A9B0A9813F00C
S31520002B80020315931EBFDDF830C00CF1020CCDF800
S31520002B9030C010F0840014904DD10F990C9A8F1AE2
S31520002BA0002F48DD102F48F60808D8BFC2F20008CB
S31520002BB030DDC2F200080DF5A86B43464FF0100A2F
S31520002BC0A8460BF10C0B1D4602E0103F102F1EDD10
S31520002BD0C4F804A0DDF85035DDF85425013325600E
S31520002BE01032072BCDF8542504F10804CDF85035C2
S31520002BF0EBDD0DF59C64484631465A460434FFF712
S31520002C00DBFD00287FF406AF103F102FE0DC2B46BB
S31520002C10454698466760DDF85035C4F800805A1C52
S31520002C20DDF85435CDF85025DB19072ACDF8543573
S31520002C3000F38A8508349DF877359BB101236360BC
S31520002C40DDF850350DF5AE6207322260DDF85425E9
S31520002C500133CDF850350132072BCDF8542500F33A
S31520002C60B6840834159B9BB102236360DDF850358A
S31520002C700DF5AE6204322260DDF854250133CDF81D
S31520002C8050350232072BCDF8542500F3AF84083493
S31520002C90DDF850C0BCF1800F00F07683179B109AA8
S31520002CA09F1A002F43DD102FDFF88C8B2EDD434635
S31520002CB00DF5A86BA8464FF0100A0BF10C0B1D461C
S31520002CC002E0103F102F1EDDC4F804A0DDF85035B9
S31520002CD0DDF85425013325601032072BCDF8542515
S31520002CE004F10804CDF85035EBDD0DF59C6448461B
S31520002CF031465A460434FFF75FFD00287FF48AAE3A
S31520002D00103F102FE0DC2B46454698466760DDF8DD
S31520002D105035DDF854250133C4F80080D219072B2D
S31520002D20CDF85425CDF8503500F342840834DDF82B
S31520002D3028C01CF4807F40F09D8210981399606013
S31520002D40DDF85035DDF85425013321601218072BA4
S31520002D50CDF85035D8BF04F10803CDF8542500F33B
S31520002D609B830A9911F0040F55D00F9ADDF830C0D5
S31520002D70CCEB0207002F4EDD102F48F60808D8BFEF
S31520002D80C2F200082EDDC2F200080DF5A86A4246FE
S31520002D901024A8460AF10C0A154602E0103F102F0F
S31520002DA01DDD5C60DDF85025DDF8541501321D600F
S31520002DB01031072ACDF8541503F10803CDF8502514
S31520002DC0ECDD484631465246FFF7F6FC0DF59C638E
S31520002DD0043300287FF41EAE103F102FE1DC2A4674
S31520002DE0454690465F60DDF85025C3F80080DDF843
S31520002DF054350132CDF85025FB18072ACDF8543525
S31520002E000BDD0DF5A862484631460C32FFF7D4FC9F
S31520002E1000287FF4FFADDDF8543511980C9A0F99F0
S31520002E208A42ACBF801840181190002B40F0428394
S31520002E300DF59C640023DDF82CA00434CDF8503524
S31520002E4030E51692002A3FF4DDAD0DF5A46001238E
S31520002E504FF0000C04300C938DF824258DF877C59F
S31520002E60139010930021179187E69DF87735002B54
S31520002E7040F02B850B992B468DF877C52A780B9138
S31520002E8053E50B990A9B43F001030A932B462A78B4
S31520002E900B914AE50B990B9A09680F91111D0F9B0F
S31520002EA0002BC0F280872A782B460B913DE50B99A3
S31520002EB02B468DF877052A780B9136E50B990A9BD8
S31520002EC043F004030A932B462A780B912DE52B46D3
S31520002ED013F8012B2A2A01F0CD80A2F1300109290D
S31520002EE001F237800235002715F8012C07EB8707FA
S31520002EF02B46013501EB4707A2F130010929F3D909
S31520002F0047EAE7771D4611E50B992B460A9A42F0C8
S31520002F1080020A922A780B9107E5A2F130014FF040
S31520002F2000082B4608EB880813F8012B01EB48080C
S31520002F30A2F130011D460929F3D9CDF83C801D4662
S31520002F40F4E40A9B169243F010030A93DDF828C096
S31520002F501CF0200F00F05D810B98C31D23F00703A2
S31520002F6003F108010B91D3E900ABBAF1000F7BF115
S31520002F700002C0F29B845AEA0B034FF001030CBFF8
S31520002F8000220122BCE50A98169210F0080F00F0E4
S31520002F90ED840B99CB1D23F0070303F108020B9256
S31520002FA0D3F80480D3F800A0CDF86C80CDF848A0E3
S31520002FB05046414604F09AF98346002800F0998548
S31520002FC0504600220023414604F0DAFF002840F054
S31520002FD00B859DF8773548F6400148F63C02169851
S31520002FE0C2F20001C2F200024FF0030C4728D8BFFC
S31520002FF0114613910A99CDF830C021F08001CDF801
S3152000300040C00A914FF0000CCDF85CC0B1E50B9999
S315200030100A9B43F008030A932B462A780B9184E4F3
S315200030200A9941F040010A910B993CE72A786C2ACB
S3152000303000F055850B990A9B0B9143F010030A93D8
S315200030402B4672E40A9A12F0200F00F082840B9825
S31520003050119A036810464FEAE0710B9AC3E9000102
S3152000306002F1040A1EE416920A9A12F0200300F0D6
S31520003070EF800B9BDA1D002322F0070202F1080CD9
S31520003080CDF82CC0D2E900AB5AEA0B000CBF0022C7
S31520003090012231E50B987821DDF828C016910368C6
S315200030A048F64C008DF8751530218DF874154CF0C6
S315200030B0020C0B991A1E18BF0122C2F200009A4672
S315200030C04FF0000B0431CDF828C0199002230B9144
S315200030D012E50B9B16924FF00002181D8DF87725EE
S315200030E01B680B901393002B00F0C686002F1398B5
S315200030F0C0F28F8600213A4603F0A6F80346002840
S3152000310000F0F58613981B1A1093BB4240F3BE8538
S315200031101097002127EAE7779DF877350C971791C6
S3152000312027E5DDF828C016921CF0200F23D00B9837
S315200031300123C21D22F0070202F108010B91D2E9F8
S3152000314000AB5AEA0B020CBF00220122D4E40A99F2
S315200031502B4641F020010A910B992A780B91FFF713
S31520003160E4BB0A9B169243F010030A93DDF828C0AD
S315200031701CF0200FDBD10A9B13F0100F00F0D58333
S315200031800B980123021D0B9201680A1E18BF01220B
S315200031908A464FF0000BAFE40A98169248F62802AA
S315200031A010F0200FC2F2000219927FF492AC0A9B13
S315200031B013F0100F40F01A830A9A12F0400F00F015
S315200031C015830B9B03F1040CCDF82CC0B3F800A09B
S315200031D0D2464FF0000B85E416920DF5A4610B9AAA
S315200031E04FF0010C4FF000000431CDF830C01368C9
S315200031F004328DF877050B921391CDF840C08DF8E7
S3152000320024352FE6DDF828C016921CF0200F7FF417
S31520003210A3AE0A9A12F0100F40F0F1820A9A12F029
S31520003220400F00F0EC820B9B03F1040CCDF82CC070
S31520003230B3F900A0D2464FEAEA7B96E60A9916929F
S3152000324041F010010A910A9A12F020037FF411AF7F
S315200032500A9911F0100200F054830B9A02F1040C23
S31520003260CDF82CC011680A1E18BF01228A464FF0DD
S31520003270000B41E4169A652A40F328811298002211
S3152000328000231B9904F072FE002800F0BE81012362
S315200032906360DDF8502548F66803C2F20003236018
S315200032A0DDF854350132CDF850250133072ACDF803
S315200032B05435D8BF04F1080300F39B83DDF870254D
S315200032C01A98824204DB0A9911F0010F3FF449ADA6
S315200032D001225A60DDF85025DDF8541501321D987B
S315200032E00131072ACDF854151860CDF8502500F382
S315200032F05F8508331A994F1E002F7FF732AD102FA6
S31520003300DFF8348540F3EA8242460DF5A86AA846DE
S3152000331010240AF10C0A154603E0103F102F40F343
S31520003320DA825C60DDF85025DDF8541501321D6027
S315200033301031072ACDF8541503F10803CDF850258E
S31520003340EBDD484631465246FFF736FA0DF59C63CB
S3152000335004330028E1D0FFF75DBB7BB90A9911F051
S31520003360010F0BD00DF5A462302304328DF84B35B6
S315200033702732012313921093FFF7F3BB18980021ED
S3152000338010911390FFF7EDBB0F980C99471A002F59
S315200033907FF784AC102FDFF8A0842EDD43460DF591
S315200033A0A86BA8464FF0100A0BF10C0B1D4602E045
S315200033B0103F102F1EDDC4F804A0DDF85035DDF8CF
S315200033C05425013325601032072BCDF8542504F1FE
S315200033D00804CDF85035EBDD0DF59C6448463146A2
S315200033E05A460434FFF7E8F900287FF413AB103F60
S315200033F0102FE0DC2B46454698466760DDF85035B1
S31520003400C4F800805A1CDDF85435CDF85025DB1958
S31520003410072ACDF8543500F33A8208343EE413994E
S315200034206360DDF850252160DDF854150132CDF8B2
S315200034305025CB18072ACDF8543500F34985083492
S315200034401D9A0123DDF870756360DDF85035226022
S31520003450DDF854250133CDF850350132072BCDF850
S315200034605425D8BF04F1080300F323851398DDF80B
S315200034707025C7191A981F60811A5960DDF85415EE
S315200034808A1ADDF850151218CDF854250131CDF8D9
S315200034905015072940F332820DF5A8624846314679
S315200034A00C32FFF789F900287FF4B4AA0DF59C6346
S315200034B0043356E40DF5A862484631460C32FFF730
S315200034C07BF900283FF4B4ACFFF7A4BA1A99012976
S315200034D04CDD01236360DDF85035DDF854250133DA
S315200034E013980132072BCDF854252060CDF850359E
S315200034F000F3B281083401236360DDF85035DDF82E
S31520003500542501331D990132072BCDF8542521600E
S31520003510CDF8503500F3928108341298002200230A
S315200035201B9904F023FD002840F01D811A9B139857
S315200035305A1E6260DDF85035411C2160DDF85415B5
S315200035400133CDF850358A18072BCDF8542521DCC8
S3152000355008341C9B0DF5AC621C9822606360DDF874
S315200035605035DDF854250133FFF7F0BB0A9A12F0E7
S31520003570010FAED1139A01236360DDF85035226026
S31520003580DDF854250133CDF850350132072BCDF81F
S315200035905425DDDD0DF5A862484631460C32FFF78D
S315200035A00BF900287FF436AA0DF59C640434D0E785
S315200035B00DF5A862484631460C32FFF7FDF8002883
S315200035C07FF428AA0DF59C640434FFF7B0BB0DF5F3
S315200035D0A862484631460C32FFF7EEF800287FF401
S315200035E019AA0DF59C640434FFF73CBB0DF5A862BF
S315200035F0484631460C32FFF7DFF800287FF40AAA46
S315200036000DF59C640434FFF743BBDDF87035002BC1
S3152000361040F3FD811A998B42FFF601AF139A616040
S31520003620DDF850352260DDF854250133CDF85035CC
S315200036305218072BCDF85425D8BF04F1080300F300
S315200036402984DDF870451A98241A002C40F3B3819A
S31520003650102CDFF8E48140F39D8142460DF5A86ADF
S31520003660A84610270AF10C0A154603E0103C102C38
S3152000367040F38D815F60DDF85025DDF85415013269
S315200036801D601031072ACDF8541503F10803CDF833
S315200036905025EBDD484631465246FFF78DF80DF5AD
S315200036A09C6304330028E1D0FFF7B4B9189A19981F
S315200036B0134613920AF00F024FEA1A1141EA0B71D0
S315200036C04FEA1B1C825C8A46E3465AEA0B0C03F837
S315200036D0012DEFD118981393C01A1090FFF741BA15
S315200036E009220023524573EB0B00DDF860801FD2C0
S315200036F023464446B8461F46504659460A220023CA
S3152000370004F08EFC00235046594602F1300C0A2262
S3152000371004F801CD04F084FC0922002382468B465E
S31520003720524573EB0B03E7D33B464746A0461C4660
S3152000373008F1FF300AF1300A139008F801AC189905
S31520003740091A1091FFF70DBA0DF5A86248463146C1
S315200037500C32FFF731F800287FF45CA90DF59C6444
S315200037600434FFF768BA1A994F1E002F7FF7F1AE7F
S31520003770102FDFF8C4804EDD43460DF5A86BA84612
S315200037804FF0100A0BF10C0B1D4602E0103F102FD4
S315200037903EDDC4F804A0DDF85035DDF854250133AC
S315200037A025601032072BCDF8542504F10804CDF8F6
S315200037B05035EBDD0DF59C64484631465A460434B7
S315200037C0FEF7FAFF0028E1D0FFF724B9169830213A
S315200037D0DDF828C0012202238DF874154CF0020C66
S315200037E08DF87505CDF828C0FFF786B90B98011D11
S315200037F003680B919A464FF0000BFFF773B90B98AD
S31520003800011D03680B919A464FEAEA7BFFF7ADBB91
S315200038102B46454698466760DDF85035DDF8542539
S315200038200133C4F80080D219072BCDF85425CDF8E2
S3152000383050357FF78DAEADE6188800200DF5A862CD
S31520003840484631460C32FEF7B7FF00287FF4E2A83F
S315200038500DF59C64043460E60DF5A86248463146B1
S315200038600C32FEF7A9FF00287FF4D4A80DF59C643E
S31520003870043440E6302800F0EC821398302300F818
S31520003880013D18991390091A1091FFF76AB90DF5A1
S31520003890A862484631460C32FEF78EFF00287FF498
S315200038A0B9A80DF59C640434FFF7F8B9DAF1000ADB
S315200038B06BEB4B0B2D235AEA0B0C8DF877350CBF8F
S315200038C0002201220123FFF71BB90B992B462A78E8
S315200038D00B91FFF72AB82A46454690465F60DDF8E9
S315200038E05025DDF854150132C3F80080C919072A7E
S315200038F0CDF85415CDF850253FF7CEAD0833FFF758
S3152000390030BA0A9810F0400300F0ED810B99134667
S315200039100A1D0B92B1F800A0BAF1000218BF0122CD
S31520003920D2464FF0000BFFF7E7B80A9B13F0400F83
S3152000393000F0CC810B980123011D0B91B0F800A05B
S31520003940BAF1000218BF0122D2464FF0000BFFF752
S31520003950D3B80A9B13F0100F00F0A4810B9811998D
S3152000396000F1040A03681960FEF79CBF0B98C31D7B
S3152000397023F0070303F108010B91D3F80480D3F851
S3152000398000A0CDF86C80CDF848A0FFF711BB2A46E1
S31520003990454690465C60DDF85025DDF85415013229
S315200039A0C3F800800919072ACDF85415CDF85025FB
S315200039B000F3EA8208330A9911F0010F3FF4D1A9E6
S315200039C001225A60DDF85025DDF8541501321D9884
S315200039D00131072ACDF854151860CDF850253FF748
S315200039E05BAD0833FFF7BDB92D238DF87735FFF78B
S315200039F0F2BA0DF5A862484631460C32FEF7DCFED7
S31520003A0000287FF407A80DF59C63043356E40123B0
S31520003A106360DDF8502548F66803C2F20003236090
S31520003A20DDF854350132CDF850250133072ACDF87B
S31520003A305435D8BF04F1080300F38781DDF87025DB
S31520003A403AB91A9A2AB9DDF828C01CF0010F3FF4BA
S31520003A5088A901225A60DDF85025DDF85415013277
S31520003A601D980131072ACDF854151860CDF8502538
S31520003A7000F379810833DDF870757F42002F40F31B
S31520003A80B381102FDFF8508640F3D28142460DF5E0
S31520003A90A86AA84610240AF10C0A154603E0103F2E
S31520003AA0102F40F3C2815C60DDF85025DDF85415F7
S31520003AB001321D601031072ACDF8541503F1080391
S31520003AC0CDF85025EBDD484631465246FEF774FECA
S31520003AD00DF59C6304330028E1D0FEF79BBF0B99BC
S31520003AE06B1C0A9A42F020020A926A780B91FEF722
S31520003AF01CBF5046414603F00BFC002840F0FF80D7
S31520003B00B7F1FF3F00F051821698672814BF0023B3
S31520003B100123472808BF43F0010313B1002F08BF34
S31520003B2001270DF5AB60434652460A99C0E90023AA
S31520003B30DDF85C3541F480710A91002BC0F2648275
S31520003B40002117911698662814BF002301234628C2
S31520003B5008BF43F001031093002B00F0D181BC462F
S31520003B600323CDF830A00DF5AE61CDF8348048465C
S31520003B70009302910DF5AC61DDE90C230C31CDF8F3
S31520003B8004C003910DF5AD61CDF824C0049100F079
S31520003B90C7FB169ADDF824C0B2F1670318BF0123CC
S31520003BA0472A0CBF002303F00103139033B90A9B65
S31520003BB013F0010F08BFDDF868B516D013981099D9
S31520003BC000EB0C0B31B10378302B00F0DA80DDF8F6
S31520003BD070359B44504600220023414604F0C6F926
S31520003BE0002800F0C281CDF868B5169A1398672A86
S31520003BF014BF00230123472A08BF43F00103C0EB6B
S31520003C000B001A90002B00F08A81DDF8701511F157
S31520003C10030F109102DB8F4280F28C81169A023AB2
S31520003C2016921099169A4B1ECDF87035002B8DF8EA
S31520003C306025C0F234822B228DF86125092B00F3F2
S31520003C40B6810DF5AC62303304328DF863353023FE
S31520003C508DF862350DF5AC631A981A99D31A18188F
S31520003C601C930129109040F3108210980130109077
S31520003C7020EAE0710C911798002800F06E812D2320
S31520003C8000218DF877351791FEF774BF109A4FF003
S31520003C90000C9DF8773522EAE272CDF85CC00C92D2
S31520003CA0FEF767BF0A9A12F0400F17BF0B980B9AC0
S31520003CB0119900F1040A11BF036802F1040A13687E
S31520003CC0119814BF19801860FEF7ECBD0B9A131DCE
S31520003CD00B93116801230A1E18BF01228A464FF052
S31520003CE0000BFEF709BF0B98021D0B9201680A1EF6
S31520003CF018BF01228A464FF0000BFEF7FDBE48F69C
S31520003D00480248F644031699C2F20003C2F20002A2
S31520003D1003204729D8BF1A4613920A9A0C9022F0FC
S31520003D208002CDF85CB00A929DF877351090FEF7A8
S31520003D3020BF0DF5A862484631460C32FEF73CFD01
S31520003D4000287EF467AEFEF762BE0DF5A8624846EF
S31520003D5031460C32FEF730FD00287EF45BAE0DF5C1
S31520003D609C6304336AE60DF5A862484631460C3258
S31520003D70FEF722FD00287EF44DAE0DF59C6304333C
S31520003D8079E65046002200234146CDF824C004F0AF
S31520003D90EDF8DDF824C000287FF419AFCCF101033B
S31520003DA0CDF8703515E70F9A52420F92FFF787B874
S31520003DB00DF5A862484631460C32FEF7FDFC002878
S31520003DC07EF428AE0DF59C630433FFF793BA0DF508
S31520003DD0A862484631460C32FEF7EEFC00287EF4F7
S31520003DE019AE0DF59C6304331A9913985960DDF8C2
S31520003DF05025DDF85415186001321A98CDF8502553
S31520003E000918072ACDF854153FF746AB0833FEF7B5
S31520003E10A8BF0021179103F0D3FB9DF8773520EA40
S31520003E20E07210900C92FEF7A4BE2A4645469046B4
S31520003E305F60DDF85025DDF854150132C3F80080A7
S31520003E40C919072ACDF85415CDF85025BFDC0833FB
S31520003E50CAE7189A1399511A1091FEF782BE48465E
S31520003E60314600F049F900287EF4D8ADB6F80CC0EA
S31520003E701FFA8CF3FEF7F6BC062F28BF062748F656
S31520003E806001C2F2000127EAE772109713910C92A3
S31520003E90FEF7E8BF0DF5A862484631460C32FEF71C
S31520003EA08BFC00287EF4B6AD0DF59C630433FFF73A
S31520003EB0C8BB0DF5A862484631460C32FEF77CFC9D
S31520003EC000287EF4A7AD0DF59C630433FFF7CEBA28
S31520003ED00DF5A862484631460C32FEF76DFC0028E7
S31520003EE07EF498AD0DF59C640434FFF7A9BA1097BB
S31520003EF027EAE77717900C979DF87735FEF739BEB6
S31520003F001699652914BF00230123452908BF43F0CC
S31520003F100103002B46D007F1010C022321E6169B54
S31520003F20652B76DD169A662A1CBFDDF87035109350
S31520003F3000F083801A9B109883426EDC0A9911F058
S31520003F40010F40F08E8020EAE07267230C921693D0
S31520003F5091E600271D46FEF7E9BC10999DF87735B6
S31520003F6021EAE1710C91FEF704BEDDF868359B4528
S31520003F7098BF9B467FF639AE302203F8012B9B452E
S31520003F80CDF86835F9D830E60DF5A86248463146B1
S31520003F900C32FEF711FC00287EF43CAD0DF59C6337
S31520003FA0043308E5BC460233DBE50737B9E546F2BC
S31520003FB0676C0DF590610331C6F2666C8CFB0320AD
S31520003FC0DA17C2EBA00202EB8200A3EB40001346F5
S31520003FD03030092A01F8010DF0DC3033481EDAB200
S31520003FE001F8012C079B83426AD90DF5AC63033394
S31520003FF001E011F8012B03F8012C1A46DDF81CC04C
S3152000400001338C45F5D825E62D2208F10048179274
S3152000401098E5DDF87005109003E6109B1A99002BA1
S31520004020DABF1098C0F1020301235B1867221093B0
S3152000403023EAE37316920C931DE6DDF8700500283B
S31520004040109031DD1FB90A9911F0010F0ED010988A
S3152000405066211691431CDB19109323EAE3720C9216
S3152000406009E61098672116910130109020EAE07237
S315200040700C9200E60B991A780F6804310B91002FE9
S31520004080B8BF4FF0FF37FEF750BC0A9A12F0010F67
S3152000409004BF20EAE0730C933FF4EDADE5E52D2255
S315200040A05B428DF86125C9E577B90A9B13F0010FAC
S315200040B00AD14FF0010CCDF830C0CDF840C0DAE57A
S315200040C00DF5AC620232C5E50237662127EAE772B2
S315200040D0109716910C92CEE51888002010B448F659
S315200040E08C24C2F200048C461346014662462068A0
S315200040F010BCFEF76FBB00BF70B548F68C25C2F228
S31520004100000506460C46286810B18369002B36D078
S3152000411048F67C03C2F200039C4238D048F69C0342
S31520004120C2F200039C4241D048F6BC03C2F200030F
S315200041309C4204BF2B68DC68A289114693B213F017
S31520004140080F184618BF226933D01AB313F001019D
S3152000415007D063690021A1605B42A36142B10020C0
S3152000416070BD13F0020F08BF6169A160002AF6D165
S31520004170A38913F0800FF2D04FF0FF3070BD01F00D
S315200041808BF948F67C03C2F200039C42C6D12B6809
S315200041905C68D1E703F42071B1F5007FD6D03046B4
S315200041A0214601F001FDA3892269CFE72B689C688F
S315200041B0C2E713F0100FDFD013F0040F08BF2269F7
S315200041C017D0616B51B104F14403994203D03046B4
S315200041D001F0E6F9A28990B20023636322694FF6C3
S315200041E0DB71C0F20001002300EA01016360A181B6
S315200041F0226041F00803A3819BB2A6E700000000DD
S315200042002DE9F84F03690E69824689469E4200F3DE
S315200042108380F21C01F1140500F11404013E920082
S315200042208B18121803F1040859685068013103F0FD
S31520004230F7FA0746002839D000239C461A46E95843
S31520004240E0581FFA81FE4FEA114B81B20EFB07CED2
S3152000425051180BFB07FC0CEB1E4C1FFA8EFECEEB07
S3152000426001011FFA8CF24FEA1C4CC2EB10421FFAD6
S3152000427081FE02EB21424EEA0241E1500433121440
S3152000428059198845DBD2321D0AEB8203596869B970
S315200042909C4209D25AF8222012B105E01A681AB9AE
S315200042A0043B013E9C42F9D3CAF810604946504669
S315200042B002F0E8F900282CDB002301379C46EA5857
S315200042C0E05891B2120C1FFA80F9C2EB1042C1EBF2
S315200042D00901614402EB214289B241EA0241E150DF
S315200042E004334FEA224C5A199045E8D2321D0AEB84
S315200042F08203596869B99C4209D25AF8222012B120
S3152000430005E01A681AB9043B013E9C42F9D3CAF863
S3152000431010603846BDE8F88F0020BDE8F88F00BF52
S315200043202DE9F04F466AA1B00446904699462D9D48
S31520004330002E00F02384326882B1616A4FF0010CAE
S31520004340766820460B6856604A6819460CFA02F2CF
S315200043509A6002F0D1FA636A00221A60B9F1000667
S3152000436038DB00232B6040F20003C7F6F0731A46B1
S3152000437006EA0303934217D000220023404649460B
S31520004380CDE9068903F0F2FD002829D02C980123D7
S315200043902E990360002900F0D080794B581E2E9A62
S315200043A0136021B0BDE8F08F2C9842F20F730360A2
S315200043B0B8F1000F00F0958048F67800C2F20000B0
S315200043C02E990029EDD0C278C31C002AE7D000F12F
S315200043D00803E4E726F000460123B1462B60C2E736
S315200043E02046DDE906231EA900911FA9019102F0AE
S315200043F0D5FAC6F30A558346002D7ED0DDE906019F
S31520004400A5F57E751F9F073D21F07F4323F470039A
S3152000441043F07E51002341F4E001199340F200035A
S315200044200022C3F6F873FDF75BFD4FA3D3E9002303
S3152000443003F034FB4EA3D3E90023FDF753FDCDE96A
S3152000444008012846FDF79AFE4BA3D3E9002303F083
S3152000445025FB02460B46DDE90801FDF743FDCDE9C4
S31520004460080103F0B5FD002200230646DDE9080118
S3152000447003F086FD40B13046FDF780FEDDE90823D6
S3152000448003F074FD00B9013E162E5BD90123189363
S31520004490013FB7EB050A42BFCAF1000ACDF83CA09E
S315200044A04FF0000A01D400220F92002EC0F2718331
S315200044B0B2440023179615932A9B092B62D8052B05
S315200044C040F377862A98002704382A902A998B1E4B
S315200044D0032B00F2DD83DFE813F0A503D803D50311
S315200044E0C40326F07F4626F47006002E7FF464AFC0
S315200044F048F66C00C2F2000062E71F9F1E9BFB1865
S3152000450003F586639D1C202DDCBFC5F1200008FA2B
S3152000451000F008DD1E3BC5F1400216FA02F228FA29
S3152000452003F342EA0300FDF719FEA5F5866501228D
S31520004530033D1992A1F1F87170E748F66800C2F2BE
S3152000454000002EE748F62013DDE90601C2F200033B
S3152000455003EBC603D3E9002303F012FD002840F045
S315200045602083189094E700BF61436F63A787D23FEB
S31520004570B3C8608B288AC63FFB799F501344D33F2C
S315200045806988002000234FF0FF301F4601212A931F
S315200045901190169108902B93656A00236B60204634
S315200045A0696802F0C5F9636A28601B681093002FBA
S315200045B000F05B81002E40F32A8448F6201306F093
S315200045C00F02C2F20003351103EBC20315F0100FE0
S315200045D0D3E90001CDE90C0100F0E78248F6F81393
S315200045E0DDE90601C2F2000305F00F054FF00308CE
S315200045F0D3E9082303F07CFBCDE91201BDB148F6CF
S31520004600F817DDE90C23C2F2000715F0010F10465A
S31520004610194607D0D7E9002308F1010803F03EFA2E
S3152000462002460B4608376D10EFD1CDE90C23DDE9A4
S315200046300C23DDE9120103F05BFBCDE90C0118998F
S31520004640002900F0DE8040F20003DDE90C010022A3
S31520004650C3F6F0734FF0000503F092FC08B14FF05B
S315200046600105089A002AD4BF002505F00105002D72
S3152000467000F0C780119B002B40F3F58040F2000329
S315200046800022C4F22403DDE90C0103F007FACDE988
S315200046900C0108F10100711E1291FDF76FFD024613
S315200046A00B46DDE90C0103F0F9F940F20003002284
S315200046B0C4F21C03FDF716FCDDF844C08046A1F1C8
S315200046C05079169B002B00F0AD8348F6201340F25C
S315200046D00001C2F20003002003EBCC03C3F6E07115
S315200046E0CDF80CC053E9022303F002FB42464B46A9
S315200046F0109DFDF7F5FB80468946DDE90C0103F0A8
S3152000470067FC0746FDF73AFD02460B46DDE90C013C
S31520004710FDF7E6FB07F13003CDE90C01404605F82D
S31520004720013B4946DDE90C2303F048FC002840F014
S31520004730138240F20001DDE90C230020C3F6F0715C
S31520004740FDF7CEFB02460B464046494603F036FCB3
S31520004750DDF80CC0002840F0E783BCF1010F40F3E0
S315200047608280CDF868B00127CDF870A01D966646E8
S31520004770DDE90CAB0C9410E040F200010020C3F6FA
S31520004780F071FDF7ADFB42464B4603F0F9FB0028DE
S3152000479040F0C783B74280F28B8440F20003404644
S315200047A049460022C4F22403013503F077F940F28A
S315200047B000030022C4F22403804689465046594607
S315200047C003F06CF98B46824603F002FC0446FDF7A3
S315200047D0D5FC303402460B4650465946FDF780FB41
S315200047E0109A4B46D4554246013782468B4603F0F3
S315200047F0C7FB52465B460028BED0DDF868B00C9C4D
S31520004800AAE14046FDF7BAFCDDE90C2303F046F9A0
S3152000481040F200030022C4F21C03FDF763FB089A52
S31520004820A1F150758046A946002A40F0EC8240F25C
S315200048300003DDE90C010022C4F21403FDF750FB4E
S3152000484042462B46CDE90C0103F0B8FB002840F088
S315200048504A824246DDE90C0105F1004303F090FB54
S31520004860002840F0D581DDE906891E9B6FEA030703
S315200048704FEAD7770E2ECCBF002707F00107002F6F
S3152000488000F0B7802B9848F62013C2F2000308994F
S3152000489003EBC603C20F0029CCBF002202F001029F
S315200048A0D3E90001CDE90401002A40F0A0810246A7
S315200048B00B464046494603F01BFA109D03F088FB41
S315200048C08246FDF75BFCDDE9042303F0E7F80246A8
S315200048D00B4640464946FDF703FB0AF1300305F82F
S315200048E0013B089A012A8046894652D040F20003AD
S315200048F00022C4F2240303F0D1F800220023CDE9DC
S31520004900060103F033FB002840F0EB8110984FF0AE
S315200049100108CDF82CB0A346871C0F96DDF8209011
S31520004920DDE906450AE003F0B9F800220023044633
S315200049300D4603F01BFB002840F0CE81DDE9042361
S315200049402046294608F1010803F0D2F93E4603F035
S315200049503FFB8246FDF712FCDDE9042303F09EF8B7
S3152000496002460B4620462946FDF7BAFA00220AF1EE
S31520004970300C07F801CC0137C14540F20003C4F2E0
S315200049802403D0D135465C460F9E8046DDF82CB0F8
S31520004990894642464B4640464946FDF7A3FA80469D
S315200049A089464246DDE904014B4603F0E9FA60B93F
S315200049B0DDE9040142464B4603F0D8FA002800F010
S315200049C090811AF0010F00F08C81109900E01D46AD
S315200049D015F8012C6B1E392A40F067838B42F6D1DD
S315200049E010993023013631220B70109B1A701296C3
S315200049F0B2E0169A002A40F0DF80159F0F9D0C9298
S31520004A00002DD4BF00230123BAF1000FD4BF002309
S31520004A1003F001034BB1AA45B4BF53462B460F986A
S31520004A20C3EB0A0AED1AC01A0F90159900291CDD4E
S31520004A30169A002A00F0E982002F12DD0C993A46D8
S31520004A40204602F0D5F95A460C9020460C9902F0E1
S31520004A50E7F8594603462046039301F04DFF039B92
S31520004A609B46159BDA1B40F011830121204602F05C
S31520004A7071F906901798002805DD06992046179AA1
S31520004A8002F0B6F906902A99012940F30A810027F7
S31520004A90179B002B40F061820123534413F01F0320
S31520004AA040F02A811C230F9A9A44ED18D2180F92AF
S31520004AB00F9B002B05DD59461A46204602F052F878
S31520004AC08346BAF1000F05DD06995246204602F0CC
S31520004AD049F806901898002840F029822A980899C3
S31520004AE00228D4BF002301230029CCBF002303F0D2
S31520004AF00103002B00F00C81002940F08C80052258
S31520004B000699089B204602F02FF9069058460699EA
S31520004B1001F0B8FD00287EDD109D01360027DDF866
S31520004B2030A0312305F8013B0699204601F0E4FE2A
S31520004B30BAF1000F00F0D5803B1E18BF0123574560
S31520004B400CBF002303F00103002B40F0D080514618
S31520004B50204601F0D1FE12962046594601F0CCFEA1
S31520004B60129A531C00222A702C982E990360002931
S31520004B7000F0D4812E9A1098156012E4102001F0CE
S31520004B8089F8C66046608660066006466062FFF762
S31520004B90D2BB0F98714200221591801B17920F905D
S31520004BA08AE40021013E189172E4DDE906234FF0E4
S31520004BB00208CDE9122321E52A98012840F36C82C8
S31520004BC0089A1598531E9842C0F25882C71A089B15
S31520004BD0002BA8BF0F9DC0F273820F9A2046012199
S31520004BE09A44D2180F9202F0B5F80C9008E7089B69
S31520004BF073B940F200030022C4F21403DDE9040174
S31520004C0002F04CFF42464B4603F0CEF900286AD00C
S31520004C10002206920C922B9B0027DDF830A0DE4363
S31520004C20109D81E7002116912B98002840F39F8143
S31520004C302B98014611900890656A002217296A6010
S31520004C4040F2AB8204235B00013203F11400884258
S31520004C50F9D9089B6A600E2B8CBF002707F0010745
S31520004C609DE4012216922B9BF3181193591C0029BF
S31520004C70C8BF0891E0DC0E298CBF002707F001078A
S31520004C80089189E401231693CEE700221692EAE7DB
S31520004C904FF0FF33002701201193169008932B978E
S31520004CA07AE4B8F1000F7FF4F2AE29F07F4323F4C3
S31520004CB07003002B7FF4EBAE40F20003C7F6F073CF
S31520004CC009EA0303002B3FF4E2AE0F9A0AF1010A28
S31520004CD0012701320F92DBE635465C460F9EDDF852
S31520004CE02CB0129638E7002006900C9014E739462F
S31520004CF0204601F001FE2AE7C3F12003042B40F3EE
S31520004D0054820F99043B9A44ED18C9180F91CFE6A7
S31520004D101699002900F03181002D05DD0C992A46CF
S31520004D20204601F01FFF0C90002F40F0EA81DDF8AD
S31520004D3030A0109D012308F001000C9F11900F95C3
S31520004D401D460C9606995846FFF75AFA39463030D2
S31520004D500B90584601F096FC069952460646204688
S31520004D6001F084FEC3688046002B3DD04FF0010938
S31520004D704146204601F0C0FD2A9959EA010103D196
S31520004D80119A002A00F0EB81002EC0F29E812A9A09
S31520004D90324303D1119B002B00F09781B9F1000F0C
S31520004DA000F3CE810F990B9A01F8012B089B0F91E6
S31520004DB09D4200F0C28159460A220023204601F076
S31520004DC0D3FF57453946834614D00A22002320466E
S31520004DD0013501F0C9FF51460A2200230746204625
S31520004DE001F0C2FF8246ADE75846414601F04AFC33
S31520004DF08146BDE720460A220023013501F0B4FF93
S31520004E00074682469EE71296DDF820C059E4754291
S31520004E10002D40F00181DDE906014FF00208CDE9C1
S31520004E200C010CE448F620114246C2F200014B4622
S31520004E3001EBCC01CDF80CC0109D51E9020102F026
S31520004E402DFECDE91A01DDE90C0103F0C1F8074674
S31520004E50FDF794F90B460246DDE90C01FDF740F813
S31520004E6007F13003CDE90C0105F8013BDDF80CC054
S31520004E70BCF1010F29D0D146DDE90C01B246109EC6
S31520004E801C9501276546A04640F200030022C4F285
S31520004E90240302F003FECDE90C0103F099F8044641
S31520004EA0FDF76CF9303402460B46DDE90C01FDF7BF
S31520004EB017F8F4550137AF42E6D11C9D013F5646FF
S31520004EC04446CA46ED19CDE90C0140F20003002202
S31520004ED0C3F6E073DDE91A01FDF704F802460B4636
S31520004EE0DDE90C0103F06AF8F0B940F20001DDE9D2
S31520004EF01A230020C3F6E071FCF7F2FF02460B46A8
S31520004F00DDE90C0103F03CF800283FF4ACAC2B465D
S31520004F101D4613F8012D302AFAD01DE61098FFF70A
S31520004F2040BADDF868B00C9C129E109950E55846A0
S31520004F30069901F0A7FB0028BFF6D0AD59462046BA
S31520004F400A22002301F010FF1699013E834600290C
S31520004F5040F01981119A0892C0E50698036900EB82
S31520004F608303186901F03CFBC0F1200395E501217C
S31520004F70119108912B91FFF70FBB109DB146169FFB
S31520004F80AA46DDF81880089E02E001F0EDFE834671
S31520004F9041465846FFF734F901350A22002359467F
S31520004FA000F1300C0AF807C001372046BE42ECDC7F
S31520004FB0DDF830A04E460027CDF82CC059460122F8
S31520004FC0204601F0CFFD0699834601F05BFB0028C1
S31520004FD00FDD109900E01D4615F8012C6B1E392AAD
S31520004FE040F08C808B42F6D11099312301360B701C
S31520004FF09AE503D10B9810F0010FEAD12B461D46F6
S3152000500013F8012D302AFAD08EE55946159A2046F6
S3152000501001F0EEFE834628E505F00F0348F6201240
S31520005020C2F20002DDE9060102EBC303D3E9002345
S3152000503002F034FD2D1108BF4FF00208CDE90C0116
S315200050403FF4FDAA48F6F817DDE90C234FF00208D5
S31520005050C2F2000715F0010F1046194607D0D7E90E
S31520005060002308F1010802F019FD02460B46083715
S315200050706D10EFD1CDE90C23FFF7E1BA1599179AF8
S315200050805B1AC918D21815911792A0E559462046E1
S3152000509001F0AEFE8346E8E41999002947D003F5CE
S315200050A08663159F03330F9D97E50132D2B29DE4A7
S315200050B0DDF868B0DDF870A01D9E0C9CFFF7D3BB11
S315200050C00F99002308980D1A87E5B9F1000F0F9D57
S315200050D00C9E0FDD59460122204601F043FD06991C
S315200050E0834601F0CFFA002847DD0B99392931D0C4
S315200050F001310B910B9A05F8012B15E501321A7037
S3152000510012E50C9A2046516801F012FC0C9B03F123
S315200051100C011A690232920005460C3001F0CEF8D5
S3152000512020462946012201F01DFD824601E61F9BED
S31520005130159F0F9DC3F136034FE50F9D0C9E3DE74E
S315200051400B9B0F9D392B0C9E04D00B98431C05F806
S31520005150013BE9E4392305F8013B10993CE70B981C
S3152000516033460F9D39280C9EF4D0002B01DD0130EB
S315200051700B900B9905F8011BD6E4BBD10B9810F0C8
S31520005180010FB7D0B1E700230C9920460A2201F07F
S31520005190EBFD119B08930C90A0E408990E298CBF77
S315200051A0002707F00107FFF7FAB93FF481AC1C335B
S315200051B079E40127FFF78AB90B692DE9F0410C46FE
S315200051C08046002B71D010B18369002B78D048F629
S315200051D07C03C2F200039C4208BFD8F8044010D0DA
S315200051E048F69C03C2F200039C4208BFD8F8084048
S315200051F007D048F6BC03C2F200039C4208BFD8F889
S315200052000C40A3891AB212F0080F35D1626843F414
S315200052100063A381002A5EDDE66A002E45D09BB29C
S3152000522013F4805218BF656D59D013F0040F4AD17C
S3152000523000234046216A2A46B047854238D1A189B3
S315200052404FF2FF732269C0F2000301EA0303002133
S31520005250616013F4805F616BA381226018BF65656E
S3152000526019B304F14403994202D0404600F098F95C
S3152000527000206063BDE8F0812669B6B12568266006
S31520005280AD1B12F0030F0CBF63690023A3600AE075
S3152000529032462B46A76A4046216AB8470028C0EB0B
S315200052A00505064404DD002DF2DC0020BDE8F08172
S315200052B0A3894FF0FF3043F04003A381BDE8F0817E
S315200052C000F0EAF883E76268636BAD1A002BAFD073
S315200052D0236CED1AACE7226C002A9DDCE5E701235E
S315200052E04046216AB047B0F1FF3F054602D0A38968
S315200052F0E66A9AE7D8F800301D2BD6D0A38943F06A
S315200053004003A381BDE8F081014628B148F68C23ED
S31520005310C2F2000318684FE748F6000345F2B911B8
S31520005320C2F20003C2F20001186800F0B3BB00BF4E
S31520005330704700BF704700BF704700BF704700BF6F
S31520005340002070470020704748F68C2345F24531EF
S31520005350C2F20003C2F20001186800F0C5BB00BF0C
S3152000536048F68C2345F24131C2F20003C2F2000115
S31520005370186800F0B9BB00BF47F26171C2F20001A4
S3152000538000F0B2BB48F60003C2F200031868F3E748
S3152000539010B5044600235C30A1811946E28108221B
S315200053A023606360A360636623616361A36101F088
S315200053B0A9F847F2C13047F2853147F25D3247F20C
S315200053C05533C2F20000C2F20001C2F20002C2F25C
S315200053D000036062A162E2622363246210BD00BF03
S315200053E070B568250E4605FB01F505F10C0100F0A8
S315200053F059FC044648B100F10C03002146602A46B8
S3152000540018462160A36001F07DF8204670BD00BFDC
S3152000541048F60003C2F2000370B51D680646AB6964
S31520005420002B2AD0D8356B68AC68013B03D520E029
S315200054306834013B1DD4B4F90C20002AF8D100258C
S315200054404FF0FF33656604F15C00E38129464FF097
S3152000545001032560A3810822A56065602561656139
S31520005460A56101F04FF8E5646563A563A564204650
S3152000547070BD286828B10546D5E7284600F00CF807
S31520005480D0E730460421FFF7ABFF28600028F2D191
S315200054900C2304463360EAE770B58669044606B1F4
S315200054A070BD45F279330125C2F20003C0F8D860F9
S315200054B08362C0F8DC60C0F8E0608561FFF7A8FF72
S315200054C060602046FFF7A4FFA0602046FFF7A0FFFC
S315200054D0324604212346E0606068FFF759FF2A46DA
S315200054E0A06809212346FFF753FF2346E0681221CF
