:020000042000DA
:100000000000012099020020090300200B030020BA
:100010000D0300200F03002011030020000000004A
:10002000000000000000000000000000130300209A
:100030001503002000000000170300201903002012
:100040001B0300201D0300201F03002021030020AC
:10005000230300202503002027030020290300207C
:100060002B0300202D030020E10D00200D0E0020A9
:1000700033030020350300208119002039030020BC
:100080003B030020AD1900203F0300204103002066
:100090007908002045030020470300204903002081
:1000A0004B030020000000000000000000000000E2
:1000B0000000000000000000000000004D030020D0
:1000C0004F0300205103002053030020550300205C
:1000D00057030020590300205B0300205D0300202C
:1000E0005F030020610300206303002065030020FC
:1000F00067030020690300206B0300206D030020CC
:100100006F0300207103002073030020750300209B
:1001100077030020790300207B0300207D0300206B
:100120007F0300208103002083030020850300203B
:1001300087030020890300208B0300208D0300200B
:100140008F030020910300209303002095030020DB
:1001500097030020990300209B0300209D030020AB
:100160009F030020A1030020A3030020A50300207B
:10017000A7030020A9030020AB030020AD0300204B
:10018000AF030020B1030020B3030020B50300201B
:10019000B7030020B9030020BB030020BD030020EB
:1001A000BF030020C1030020C3030020C5030020BB
:1001B000C7030020C9030020CB030020CD0300208B
:1001C000CF030020D1030020D3030020D50300205B
:1001D000D7030020D9030020DB030020DD0300202B
:1001E000DF030020E1030020E3030020E5030020FB
:1001F000E7030020E9030020EB030020ED030020CB
:10020000EF030020F1030020F3030020F50300209A
:10021000F7030020F9030020FB030020FD0300206A
:10022000FF03002001040020030400200504002037
:1002300007040020090400200B0400200D04002006
:100240000F040020110400201304002015040020D6
:1002500017040020190400201B0400201D040020A6
:100260001F04002021040020230400202504002076
:1002700027040020290400202B0400202D04002046
:100280002F04002031040020330400203504002016
:100290003704002039040020684880476848002857
:1002A0000BD168486849694A884206D091421CBF10
:1002B00050F8043B41F8043BF8D165486549664A6B
:1002C000884206D091421CBF50F8043B41F8043BE1
:1002D000F8D162486249634A914218BF41F8040B61
:1002E000FAD1000000000000000000000000000043
:1002F000DFF874010FF2030E00474FF000004FF0DB
:100300000001DFF868F1FEE7FEE7FEE7FEE7FEE743
:10031000FEE7FEE7FEE7FEE7FEE7FEE7FEE7FEE7B5
:10032000FEE7FEE7FEE7FEE7FEE7FEE7FEE7FEE7A5
:10033000FEE7FEE7FEE7FEE7FEE7FEE7FEE7FEE795
:10034000FEE7FEE7FEE7FEE7FEE7FEE7FEE7FEE785
:10035000FEE7FEE7FEE7FEE7FEE7FEE7FEE7FEE775
:10036000FEE7FEE7FEE7FEE7FEE7FEE7FEE7FEE765
:10037000FEE7FEE7FEE7FEE7FEE7FEE7FEE7FEE755
:10038000FEE7FEE7FEE7FEE7FEE7FEE7FEE7FEE745
:10039000FEE7FEE7FEE7FEE7FEE7FEE7FEE7FEE735
:1003A000FEE7FEE7FEE7FEE7FEE7FEE7FEE7FEE725
:1003B000FEE7FEE7FEE7FEE7FEE7FEE7FEE7FEE715
:1003C000FEE7FEE7FEE7FEE7FEE7FEE7FEE7FEE705
:1003D000FEE7FEE7FEE7FEE7FEE7FEE7FEE7FEE7F5
:1003E000FEE7FEE7FEE7FEE7FEE7FEE7FEE7FEE7E5
:1003F000FEE7FEE7FEE7FEE7FEE7FEE7FEE7FEE7D5
:10040000FEE7FEE7FEE7FEE7FEE7FEE7FEE7FEE7C4
:10041000FEE7FEE7FEE7FEE7FEE7FEE7FEE7FEE7B4
:10042000FEE7FEE7FEE7FEE7FEE7FEE7FEE7FEE7A4
:10043000FEE7FEE7FEE7FEE7FEE70000351B0020D3
:10044000000000000000002000000020A029002083
:10045000A0290020A0290020A429002000000000DD
:10046000A4290020202C002071280020B90A002097
:1004700042F6A413C2F200031A780AB901201870D8
:10048000704700BF42F6A010C2F2000008B5036832
:100490002BB140F20003C0F2000303B1984708BD3E
:1004A00080B500AF4FF06B004FF0000100F044F852
:1004B00080BD00BF80B582B000AF4FF03E0000F0BD
:1004C00061F80346BB714FF03D0000F05BF8034656
:1004D000FB71BA79FB794FEA03239BB213449BB2B9
:1004E00003F5227303F102039BB21BB2184607F116
:1004F0000807BD4680BD00BF80B582B000AF4FF099
:10050000440000F03FF80346BB714FF0430000F099
:1005100039F80346FB71BA79FB794FEA03239BB2A2
:1005200013449BB2A3F5EC73A3F103039BB21846EB
:1005300007F10807BD4680BD80B586B002AF024610
:100540000B46FA71BB71FB793B73BB797B7307F187
:100550000C034FF00002009242F6DC30C2F20000C1
:100560004FF0D0011A464FF0020300F08BFD42F627
:10057000DC30C2F2000000F04BFE07F11007BD4670
:1005800080BD00BF80B586B002AF0346FB7107F1A6
:1005900007034FF00002009242F6DC30C2F2000086
:1005A0004FF0D0011A464FF0010300F06BFD42F608
:1005B000DC30C2F2000000F02BFE07F10F034FF019
:1005C0000002009242F6DC30C2F200004FF0D1018E
:1005D0001A464FF0010300F0B7FD42F6DC30C2F2DC
:1005E000000000F015FEFB7B184607F11007BD4622
:1005F00080BD00BF80B483B000AF0346FB804EF2E5
:100600000013CEF20003B7F906204FEA5212F98820
:1006100001F01F014FF0010000FA01F143F8221030
:1006200007F10C07BD4680BC704700BF80B483B0A3
:1006300000AF0346FB804EF20013CEF20003B7F981
:1006400006204FEA5212F98801F01F014FF0010015
:1006500000FA01F102F1200243F8221007F10C0721
:10066000BD4680BC704700BF80B483B000AF034676
:10067000FB804EF20013CEF20003B7F906204FEADA
:100680005212F98801F01F014FF0010000FA01F148
:1006900002F1600243F8221007F10C07BD4680BC4E
:1006A000704700BF80B582B000AF0346FB714FF0CA
:1006B0001400FFF7BBFF42F20003CEF2040342F244
:1006C0000002CEF20402126B22F040021A6345F2DD
:1006D0000003C4F200034FF000025A6540F2000329
:1006E000C4F20A234FF00002C3F8802140F2000355
:1006F000C4F20A234FF00002C3F8882140F200033D
:10070000C4F20A23FA79C3F8842145F20003C4F243
:1007100000034FF001021A614FF01400FFF7A4FF2D
:1007200007F10807BD4680BD80B400AF40F200036A
:10073000C4F20A234FF00102C3F88021BD4680BCF9
:10074000704700BF80B483B000AF786045F200030B
:10075000C4F200037A689A6007F10C07BD4680BCBA
:10076000704700BF80B500AF40F20003C4F20A2317
:100770004FF00102C3F888214FF01400FFF73AFF51
:1007800080BD00BF80B500AF45F20003C4F2000396
:100790004FF001021A614FF01400FFF765FF80BDB2
:1007A00080B582B000AF0346FB714FF01500FFF734
:1007B0003DFF42F20003CEF2040342F20002CEF209
:1007C0000402126B22F040021A6345F20003C4F2E5
:1007D00000034FF000025A6540F20003C4F20A23FE
:1007E0004FF00002C3F8802440F20003C4F20A2351
:1007F0004FF00002C3F8882440F20003C4F20A2339
:10080000FA79C3F8842445F20003C4F200034FF0E0
:1008100001029A624FF01500FFF726FF07F1080763
:10082000BD4680BD80B400AF40F20003C4F20A238D
:100830004FF00102C3F88024BD4680BC704700BF62
:1008400080B400AF45F20003C4F200039B69184670
:10085000BD4680BC704700BF80B483B000AF7860F5
:1008600045F20003C4F200037A68DA6107F10C076D
:10087000BD4680BC704700BFB0B588B000AF42F63F
:10088000AC13C2F200031A6842F64633C2F2000308
:10089000198842F6B013C2F2000323F8121042F690
:1008A000AC13C2F200031B6803F1010242F6AC1361
:1008B000C2F200031A6042F6AC13C2F200031B68D6
:1008C000632B06DD42F6AC13C2F200034FF00002C8
:1008D0001A604FF00003BB604FF000037B600EE036
:1008E0007A6842F6B013C2F2000333F812301BB23A
:1008F000BA681344BB607B6803F101037B607B68CB
:10090000632BEDDDBA6848F21F53C5F2EB1383FB8E
:1009100002134FEA63114FEAE273C3EB0103184677
:1009200001F002FE0346FB60F8685F4901F004FF36
:1009300003463B6142F67823C2F200031A6842F68E
:100940004433C2F200031B88194642F67C23C2F2EC
:10095000000323F8121042F67823C2F200031B684A
:1009600003F1010242F67823C2F200031A6042F654
:100970007823C2F200031B68632B06DD42F678235E
:10098000C2F200034FF000021A604FF000037B61D7
:100990004FF000037B600EE07A6842F67C23C2F2DF
:1009A000000333F812301BB27A6913447B617B6811
:1009B00003F101037B607B68632BEDDD7A6948F20C
:1009C0001F53C5F2EB1383FB02134FEA63114FEA87
:1009D000E273C3EB0103184601F0A6FD0346BB61B9
:1009E000B869324901F0F4FD03461846304901F078
:1009F000A3FE0346FB6142F6A813C2F200031B6884
:100A0000184601F001FA04460D46386901F0FCF978
:100A100002460B46104619461DA3D3E9002301F0F8
:100A200047FA02460B462046294601F08FF8024657
:100A30000B461046194618A3D3E9002301F038FAF3
:100A400002460B4614461D46F86901F0DDF90246E0
:100A50000B461046194612A3D3E9002301F028FAE9
:100A600002460B462046294601F070F802460B4626
:100A70001046194601F04EFC024642F6A813C2F297
:100A800000031A60FFF77EFE07F12007BD46B0BDE8
:100A9000FCA9F1D24D62503F5C8FC2F5285CEF3F5C
:100AA0007B14AE47E17A943F000003430000B44258
:100AB00000008046AFF3008080B584B000AF00F046
:100AC000A9FF4FF000004FF0050100F0D9FF4FF0F3
:100AD00001004FF0050100F0D3FF42F6DC30C2F216
:100AE00000004FF0D0014FF0000200F0FDF9FFF7D9
:100AF000D7FC4FF00000FFF7D5FDFFF733FE48F2BB
:100B0000A060C0F20100FFF71DFEFFF70DFE4FF0E1
:100B10000100FFF745FEFFF7EFFC03461A4642F6D9
:100B20004633C2F200031A80FFF7C4FC03469BB2AF
:100B30009AB242F64433C2F200031A8042F6A81376
:100B4000C2F200031B68184601F05EF902460B462C
:100B50001046194644A3D3E9002301F0D3FA024614
:100B60000B461046194642A3D3E9002301F0A0F931
:100B700002460B46104619463FA3D3E9002300F076
:100B8000E5FF02460B461046194601F0A3FB03465B
:100B90007B6042F6A813C2F200031B68184601F0FE
:100BA00033F902460B46104619462FA3D3E900231A
:100BB00001F0A8FA02460B461046194630A3D3E9C5
:100BC000002301F075F902460B46104619462AA388
:100BD000D3E9002300F0BAFF02460B46104619463F
:100BE00001F078FB0346BB6048F28043C0F21E036D
:100BF000FB60F868FFF730FEFFF714FE2BE0FFF70D
:100C00001FFE0246F9687B68C3EB01039A4206D9CE
:100C10004FF000004FF0010100F050FF05E04FF0F1
:100C200000004FF0000100F049FFFFF709FE024607
:100C3000F968BB68C3EB01039A4206D94FF0010083
:100C40004FF0010100F03AFF05E04FF001004FF0D6
:100C5000000100F033FFFFF7F3FD0346002BCED178
:100C600059E700BFAFF3008000000000008056404D
:100C700000000000006AF84000000000804F0241C0
:100C800000000000006AF8C080B483B000AF0346E3
:100C9000FB804EF20013CEF20003B7F906204FEAB4
:100CA0005212F98801F01F014FF0010000FA01F122
:100CB00002F1600243F8221007F10C07BD4680BC28
:100CC000704700BF80B584B000AF78607A6842F6A4
:100CD0007033C2F200039A4207D07A6842F6483372
:100CE000C2F200039A4200D000BE7A6842F6703326
:100CF000C2F200039A4206D07A6842F64833C2F242
:100D000000039A4267D17B681B681B7ADBB203F051
:100D10000F03FB73FB7B0C2B54D801A252F823F07A
:100D2000550D0020C50D0020710D0020C50D0020BF
:100D30008D0D0020C50D0020A90D0020C50D00203F
:100D4000C50D0020C50D0020C50D0020C50D0020DB
:100D50008D0D00207B685B6A002B00D100BE7B6894
:100D60005B6A002B30D07B685B6A7868984732E01A
:100D70007B681B6A002B00D100BE7B681B6A002BBE
:100D800024D07B681B6A7868984724E07B68DB691D
:100D9000002B00D100BE7B68DB69002B18D07B687C
:100DA000DB697868984716E07B689B69002B00D167
:100DB00000BE7B689B69002B0CD07B689B697868C0
:100DC000984708E000BE06E000BF04E000BF02E074
:100DD00000BF00E000BF07F11007BD4680BD00BFA7
:100DE000684620F007018D4689B500AF42F67030A5
:100DF000C2F20000FFF766FF4FF00A00FFF744FF62
:100E0000BD46BDE889408546704700BF684620F072
:100E100007018D4689B500AF42F64830C2F20000A6
:100E2000FFF750FF4FF00B00FFF72EFFBD46BDE868
:100E300089408546704700BF80B483B000AF034649
:100E4000FB804EF20013CEF20003B7F906204FEA02
:100E50005212F98801F01F014FF0010000FA01F170
:100E600043F8221007F10C07BD4680BC704700BF55
:100E700080B483B000AF0346FB804EF20013CEF285
:100E80000003B7F906204FEA5212F98801F01F015A
:100E90004FF0010000FA01F102F1200243F82210A4
:100EA00007F10C07BD4680BC704700BF80B483B01B
:100EB00000AF0346FB804EF20013CEF20003B7F9F9
:100EC00006204FEA5212F98801F01F014FF001008D
:100ED00000FA01F102F1600243F8221007F10C0759
:100EE000BD4680BC704700BF80B584B000AF78605D
:100EF00013460A46FA70BB70BB78FB607A6842F60C
:100F00009833C2F200039A4207D07A6842F6DC3383
:100F1000C2F200039A4200D000BE7A6842F69833CB
:100F2000C2F200039A422CD17B684FF00E025A8223
:100F30007A6842F20003C4F2000353617A6840F217
:100F40000003C4F20423936142F20003CEF20403CF
:100F500042F20002CEF20402126B42F400621A6303
:100F60004FF00E00FFF7A2FF42F20003CEF204039F
:100F700042F20002CEF20402126B22F400621A6303
:100F80002BE07B684FF011025A827A6842F200032C
:100F9000C4F2010353617A6840F20003C4F22423CF
:100FA000936142F20003CEF2040342F20002CEF259
:100FB0000402126B42F480521A634FF01100FFF7E3
:100FC00075FF42F20003CEF2040342F20002CEF2B9
:100FD0000402126B22F480521A637B684FF0000205
:100FE0001A72FA787B681A607B684FF00002DA6147
:100FF0007B684FF000021A627B684FF000025A6271
:101000007B684FF00002DA627B684FF000021A63DF
:101010007B684FF000025A637B684FF0000283F850
:1010200038207B684FF00002DA607B684FF00002E6
:101030001A647B684FF00002DA637B689B694FF0AB
:1010400001029A617B689B69FA684FEA920202F09A
:101050000102DA617B689B69FA684FEA520202F08A
:1010600001025A607B689B69FA6802F001021A600B
:101070007B685B697A681268D2B21A7307F110074D
:10108000BD4680BD80B586B000AFF8607A600A4684
:10109000FA727B80FA6842F69833C2F200039A42F1
:1010A00007D0FA6842F6DC33C2F200039A4200D05D
:1010B00000BE00F04BFC03467B61FB684FF0010271
:1010C0001A72FA7AFB685A60FB684FF000029A6263
:1010D000FB687A68DA617A88FB681A62FB684FF00D
:1010E00000025A62FB684FF0010283F83820FB6867
:1010F00097F820201A74FB689B69DB68FB74FB6817
:101100009B694FF001025A61FB7C002B0AD0FB68FF
:101110009B694FF00002DA60FB685B8A1BB21846DD
:10112000FFF7C4FEFB685B691B79BB74FB685B8AD5
:101130001BB21846FFF780FE786900F015FC07F136
:101140001807BD4680BD00BF80B588B000AFF8600D
:101150007A600A46FA727B80FA6842F69833C2F2E5
:1011600000039A4207D0FA6842F6DC33C2F2000369
:101170009A4200D000BE7B88002B45D000F0E6FBF1
:101180000346BB61FB684FF002021A72FA7AFB68F1
:101190005A60FB684FF001029A62FB687A68DA6273
:1011A0007A88FB681A63FB684FF000025A63FB6899
:1011B0004FF0010283F83820FB6897F828201A7452
:1011C000FB689B69DB68FB77FB689B694FF001025A
:1011D0005A61FB7F002B0AD0FB689B694FF000022D
:1011E000DA60FB685B8A1BB21846FFF75FFEFB689C
:1011F0005B691B79FB75FB685B8A1BB21846FFF7BE
:101200001BFEB86900F0B0FB07F12007BD4680BDAA
:1012100080B483B000AF78607A6842F69833C2F247
:1012200000039A4207D07A6842F6DC33C2F2000328
:101230009A4200D000BE7B6893F83830DBB2012BB5
:10124000F9D07B6893F83830DBB2184607F10C0709
:10125000BD4680BC704700BF80B584B000AF7860E9
:101260004FF00103BB737A6842F69833C2F2000371
:101270009A4207D07A6842F6DC33C2F200039A42FF
:1012800000D000BE7B685B691B79FB72FB7ADBB226
:10129000A3F10803D02B00F2488301A252F823F0F7
:1012A000E51500202B1900202B1900202B190020F8
:1012B0002B1900202B1900202B1900202B1900209E
:1012C000E51500202B1900202B1900202B190020D8
:1012D0002B1900202B1900202B1900202B1900207E
:1012E000251600202B1900202B1900202B19002077
:1012F0002B1900202B1900202B1900202B1900205E
:101300005B1600202B1900202B1900202B19002020
:101310002B1900202B1900202B1900202B1900203D
:10132000711600202B1900202B1900202B190020EA
:101330002B1900202B1900202B1900202B1900201D
:10134000EF1600202B1900202B1900202B1900204C
:101350002B1900202B1900202B1900202B190020FD
:10136000191600202B1900202B1900202B19002002
:101370002B1900202B1900202B1900202B190020DD
:10138000051700202B1900202B1900202B190020F5
:101390002B1900202B1900202B1900202B190020BD
:1013A000251700202B1900202B1900202B190020B5
:1013B0002B1900202B1900202B1900202B1900209D
:1013C0003B1700202B1900202B1900202B1900207F
:1013D0002B1900202B1900202B1900202B1900207D
:1013E000751700202B1900202B1900202B19002025
:1013F0002B1900202B1900202B1900202B1900205D
:10140000F31700202B1900202B1900202B19002086
:101410002B1900202B1900202B1900202B1900203C
:101420002B1900202B1900202B1900202B1900202C
:101430002B1900202B1900202B1900202B1900201C
:101440002B1900202B1900202B1900202B1900200C
:101450002B1900202B1900202B1900202B190020FC
:101460002B1900202B1900202B1900202B190020EC
:101470002B1900202B1900202B1900202B190020DC
:101480000D1800202B1900202B1900202B190020EB
:101490002B1900202B1900202B1900202B190020BC
:1014A000CB1700202B1900202B1900202B1900200E
:1014B0002B1900202B1900202B1900202B1900209C
:1014C0000D1800202B1900202B1900202B190020AB
:1014D0002B1900202B1900202B1900202B1900207C
:1014E000CB1700202B1900202B1900202B190020CE
:1014F0002B1900202B1900202B1900202B1900205C
:10150000571800202B1900202B1900202B19002020
:101510002B1900202B1900202B1900202B1900203B
:10152000C51800202B1900202B1900202B19002092
:101530002B1900202B1900202B1900202B1900201B
:10154000C51800202B1900202B1900202B19002072
:101550002B1900202B1900202B1900202B190020FB
:10156000C51800202B1900202B1900202B19002052
:101570002B1900202B1900202B1900202B190020DB
:101580001B1900202B1900202B1900202B190020DB
:101590002B1900202B1900202B1900202B190020BB
:1015A0002B1900202B1900202B1900202B190020AB
:1015B0002B1900202B1900202B1900202B1900209B
:1015C0002B1900202B1900202B1900202B1900208B
:1015D0002B1900202B1900202B1900202B1900207B
:1015E0002B1900207B689B694FF000025A617B68D1
:1015F0005B697A685268D2B21A727B689B697A68B2
:10160000926AC3F800217B684FF000025A627B683F
:101610004FF000025A6388E17B689B694FF001023A
:101620005A6182E17B685A6A7B681B6A9A420DD2D2
:101630007B685A697B68D9697B685B6A1944097859
:10164000117203F101027B685A626EE17B685B8A6A
:101650001BB21846FFF70CFC67E17B689B694FF0F3
:1016600001021A617B684FF0020283F838205CE1C6
:101670007B685A6A7B681B6A9A420DD27B685A69FA
:101680007B68D9697B685B6A19440978117203F138
:1016900001027B685A6248E17B681B7A032B09D1FF
:1016A0007B684FF001029A627B689B694FF00102F0
:1016B0005A613AE17B681B7C03F001037B737B7BFF
:1016C000002B05D17B689B694FF001021A6108E08D
:1016D0007B685B8A1BB21846FFF7CAFB4FF000031A
:1016E000BB737B684FF0000283F838201DE17B68F4
:1016F0009B694FF001021A617B684FF0020283F888
:10170000382012E17B681B6B012B05D97B689B6934
:101710004FF001029A6008E17B689B694FF000027C
:101720009A6002E17B689B694FF001021A617B6855
:101730004FF0020283F83820F7E07B68DA6A7B68B2
:101740005B6B1A4479684969097AC9B2117003F16F
:1017500001027B685A637B685A6B7B681B6B03F1E1
:10176000FF339A42C0F0DE807B689B694FF0000235
:101770009A60DAE07B68DA6A7B685B6B1A447968A6
:101780004969097AC9B2117003F101027B685A6391
:101790007B681B7C03F001037B737B7B002B05D1F3
:1017A0007B689B694FF001021A6108E07B685B8AE5
:1017B0001BB21846FFF75CFB4FF00003BB737B685E
:1017C0004FF0000283F83820AFE07B68DB6A002B23
:1017D00009D07B68DA6A7B685B6B13447A6852696C
:1017E000127AD2B21A707B689B694FF001029A603C
:1017F0009BE07B684FF004021A727B684FF0000296
:101800005A637B684FF00002DA608EE07B685A6BA7
:101810007B681B6BA3F102039A4204D37B689B692C
:101820004FF000029A607B685B691B7A3B737B68B0
:10183000DA6A7B685B6B1A44397B117003F1010231
:101840007B685A637B68DB684FEA03223B7B1A4460
:101850007B68DA6069E07B681B7A042B2CD17B689B
:101860005A6B7B68DB6B9A4208D17B684FF00602AB
:101870001A727B68DA687B685A621DE07B681B6CB1
:10188000002B19D07B681B6C7A68D16A7A68526B1E
:1018900092B20846114698470346FB73FB7B002B28
:1018A00005D17B689B694FF001029A6004E07B6878
:1018B0009B694FF000029A607B684FF0000283F84A
:1018C000382032E0FB7ADBB2A82B07D17B684FF0DF
:1018D00005021A727B684FF00002DA607B685A6971
:1018E0007B68D9697B685B6A19440978117203F1D6
:1018F00001027B685A627B685A6A7B681B6A03F143
:10190000FF339A4210D37B689B694FF000029A60C4
:101910007B684FF000025A6207E07B684FF00002DC
:101920005A6202E000BF00E000BFBB7B002B04D086
:101930007B689B694FF00002DA607B685B691B790A
:10194000FB7207F11007BD4680BD00BF80B582B0B5
:1019500000AF00F0D3F803467B607B68184607F1C0
:101960000807BD4680BD00BF80B582B000AF78607B
:10197000786800F0D3F807F10807BD4680BD00BFC6
:10198000684620F007018D4689B500AF42F69830D1
:10199000C2F20000FFF760FC4FF00E00FFF786FA7E
:1019A000BD46BDE889408546704700BF684620F0C7
:1019B00007018D4689B500AF42F6DC30C2F2000067
:1019C000FFF74AFC4FF01100FFF770FABD46BDE883
:1019D00089408546704700BF80B483B000AF03469E
:1019E000FB804EF20013CEF20003B7F906204FEA57
:1019F0005212F98801F01F014FF0010000FA01F1C5
:101A000002F1600243F8221007F10C07BD4680BCCA
:101A1000704700BF80B582B000AF42F20003CEF243
:101A2000040342F20002CEF20402126B42F480423E
:101A30001A634FF000037B600EE07A6842F64013B1
:101A4000C2F2000333F812301BB21846FFF7C4FF8E
:101A50007B6803F101037B607B681F2BEDD942F2A9
:101A60000003CEF2040342F20002CEF20402126B33
:101A700022F480421A6307F10807BD4680BD00BF0B
:101A800080B485B000AF03463960FB71FB79FB6021
:101A9000FB681F2B00D900BEFB681F2B08D8FA6813
:101AA00042F6C003C2F2000353F822303A681A60CB
:101AB00007F11407BD4680BC704700BF80B485B0F5
:101AC00000AF02460B46FA71BB71FB79FB60FB6805
:101AD0001F2B00D900BEFB681F2B09D840F2000362
:101AE000C4F22623FA68B97902F5886243F8221015
:101AF00007F11407BD4680BC704700BF80B483B0B7
:101B000000AF4FF000037B60EFF310837B607B68D6
:101B1000184607F10C07BD4680BC704780B483B0FF
:101B200000AF78607B6883F3108807F10C07BD462F
:101B300080BC704780B400AFBD4680BC704700BF1A
:101B400081F0004102E000BF83F0004330B54FEA6E
:101B500041044FEA430594EA050F08BF90EA020FDB
:101B60001FBF54EA000C55EA020C7FEA645C7FEA6E
:101B7000655C00F0E2804FEA5454D4EB5555B8BF91
:101B80006D420CDD2C4480EA020281EA030382EA02
:101B9000000083EA010180EA020281EA0303362D94
:101BA00088BF30BD11F0004F4FEA01314FF4801C67
:101BB0004CEA113102D0404261EB410113F0004F79
:101BC0004FEA03334CEA133302D0524263EB430330
:101BD00094EA050F00F0A780A4F10104D5F1200ECE
:101BE0000DDB02FA0EFC22FA05F2801841F1000129
:101BF00003FA0EF2801843FA05F359410EE0A5F1FD
:101C000020050EF1200E012A03FA0EFC28BF4CF02D
:101C1000020C43FA05F3C01851EBE37101F00045E3
:101C200007D54FF0000EDCF1000C7EEB00006EEBF0
:101C30000101B1F5801F1BD3B1F5001F0CD349087A
:101C40005FEA30004FEA3C0C04F101044FEA4452D1
:101C500012F5800F80F09A80BCF1004F08BF5FEA58
:101C6000500C50F1000041EB045141EA050130BD38
:101C70005FEA4C0C404141EB010111F4801FA4F1DB
:101C80000104E9D191F0000F04BF01460020B1FA30
:101C900081F308BF2033A3F10B03B3F120020CDA68
:101CA0000C3208DD02F1140CC2F10C0201FA0CF046
:101CB00021FA02F10CE002F11402D8BFC2F1200CAB
:101CC00001FA02F120FA0CFCDCBF41EA0C01904061
:101CD000E41AA2BF01EB0451294330BD6FEA0404AA
:101CE0001F3C1CDA0C340EDC04F11404C4F1200295
:101CF00020FA04F001FA02F340EA030021FA04F3A7
:101D000045EA030130BDC4F10C04C4F1200220FAFD
:101D100002F001FA04F340EA0300294630BD21FA3B
:101D200004F0294630BD94F0000F83F4801306BF01
:101D300081F480110134013D4EE77FEA645C18BFF5
:101D40007FEA655C29D094EA050F08BF90EA020F8C
:101D500005D054EA000C04BF1946104630BD91EA84
:101D6000030F1EBF0021002030BD5FEA545C05D187
:101D70004000494128BF41F0004130BD14F58004C6
:101D80003CBF01F5801130BD01F0004545F0FE413A
:101D900041F470014FF0000030BD7FEA645C1ABF6F
:101DA000194610467FEA655C1CBF0B46024650EAA6
:101DB000013406BF52EA033591EA030F41F40021D2
:101DC00030BD00BF90F0000F04BF0021704730B558
:101DD0004FF4806404F132044FF000054FF000012D
:101DE00050E700BF90F0000F04BF0021704730B5EE
:101DF0004FF4806404F1320410F0004548BF4042C3
:101E00004FF000013EE700BF42004FEAE2014FEA17
:101E100031014FEA02701FBF12F07F4393F07F4FF2
:101E200081F06051704792F0000F14BF93F07F4F24
:101E3000704730B54FF4607401F0004521F0004167
:101E400020E700BF50EA010208BF704730B54FF0ED
:101E500000050AE050EA010208BF704730B511F0F2
:101E6000004502D5404261EB41014FF4806404F12A
:101E700032045FEA915C3FF4DCAE4FF003025FEAAC
:101E8000DC0C18BF03325FEADC0C18BF033202EB34
:101E9000DC02C2F1200300FA03FC20FA02F001FA8E
:101EA00003FE40EA0E0021FA02F11444C1E600BF2D
:101EB00070B54FF0FF0C4CF4E06C1CEA11541DBFE0
:101EC0001CEA135594EA0C0F95EA0C0F00F0DEF8AB
:101ED0002C4481EA030621EA4C5123EA4C5350EA90
:101EE000013518BF52EA033541F4801143F48013E1
:101EF00038D0A0FB02CE4FF00005E1FB02E506F072
:101F00000042E0FB03E54FF00006E1FB03569CF0C6
:101F1000000F18BF4EF0010EA4F1FF04B6F5007FCC
:101F200064F5407404D25FEA4E0E6D4146EB06063E
:101F300042EAC62141EA55514FEAC52040EA5E50C7
:101F40004FEACE2EB4F1FD0C88BFBCF5E06F1ED871
:101F5000BEF1004F08BF5FEA500E50F1000041EBA8
:101F6000045170BD06F0004646EA010140EA020055
:101F700081EA0301B4EB5C04C2BFD4EB0C0541EA77
:101F8000045170BD41F480114FF0000E013C00F38C
:101F9000AB8014F1360FDEBF002001F0004170BDB0
:101FA000C4F10004203C35DA0C341BDC04F11404C9
:101FB000C4F1200500FA05F320FA04F001FA05F255
:101FC00040EA020001F0004221F0004110EBD37022
:101FD00021FA04F642EB06015EEA430E08BF20EA4E
:101FE000D37070BDC4F10C04C4F1200500FA04F3F1
:101FF00020FA05F001FA04F240EA020001F0004183
:1020000010EBD37041F100015EEA430E08BF20EAF5
:10201000D37070BDC4F1200500FA05F24EEA020E3D
:1020200020FA04F301FA05F243EA020321FA04F06C
:1020300001F0004121FA04F220EA020000EBD37023
:102040005EEA430E08BF20EAD37070BD94F0000F23
:102050000FD101F00046400041EB010111F4801F57
:1020600008BF013CF7D041EA060195F0000F18BF08
:10207000704703F00046520043EB030313F4801F44
:1020800008BF013DF7D043EA0603704794EA0C0FFE
:102090000CEA135518BF95EA0C0F0CD050EA410614
:1020A00018BF52EA4306D1D181EA030101F0004191
:1020B0004FF0000070BD50EA410606BF10461946B9
:1020C00052EA430619D094EA0C0F02D150EA0136C5
:1020D00013D195EA0C0F05D152EA03361CBF104606
:1020E00019460AD181EA030101F0004141F0FE41A5
:1020F00041F470014FF0000070BD41F0FE4141F429
:10210000780170BD70B54FF0FF0C4CF4E06C1CEA28
:1021100011541DBF1CEA135594EA0C0F95EA0C0FDD
:1021200000F0A7F8A4EB050481EA030E52EA033598
:102130004FEA013100F088804FEA03334FF08055B9
:1021400045EA131343EA12634FEA022245EA1115E6
:1021500045EA10654FEA00260EF000419D4208BF97
:10216000964244F1FD0404F5407402D25B084FEA44
:102170003202B61A65EB03055B084FEA32024FF4F0
:1021800080104FF4002CB6EB020E75EB030E22BF4D
:10219000B61A754640EA0C005B084FEA3202B6EB0D
:1021A000020E75EB030E22BFB61A754640EA5C00BC
:1021B0005B084FEA3202B6EB020E75EB030E22BF4C
:1021C000B61A754640EA9C005B084FEA3202B6EB4D
:1021D000020E75EB030E22BFB61A754640EADC000C
:1021E00055EA060E18D04FEA051545EA16754FEA6E
:1021F00006164FEAC30343EA52734FEAC2025FEA8C
:102200001C1CC0D111F4801F0BD141EA00014FF01A
:1022100000004FF0004CB6E711F4801F04BF0143EB
:102220000020B4F1FD0C88BFBCF5E06F3FF6AFAE07
:10223000B5EB030C04BFB6EB020C5FEA500C50F197
:10224000000041EB045170BD0EF0004E4EEA11311A
:1022500014EB5C04C2BFD4EB0C0541EA045170BD21
:1022600041F480114FF0000E013C90E645EA060E65
:102270008DE60CEA135594EA0C0F08BF95EA0C0F93
:102280003FF43BAF94EA0C0F0AD150EA01347FF4DB
:1022900034AF95EA0C0F7FF425AF104619462CE7B2
:1022A00095EA0C0F06D152EA03353FF4FDAE104615
:1022B000194622E750EA410618BF52EA43067FF466
:1022C000C5AE50EA41047FF40DAF52EA43057FF4F6
:1022D000EBAE12E74A0011D212F5001211D20DD561
:1022E0006FF47873B3EB62520ED44FEAC12343F01C
:1022F000004343EA505323FA02F070474FF00000C6
:10230000704750EA013002D14FF0FF3070474FF074
:10231000000070474FEA4102B2F1E04324BFB3F539
:10232000001CDCF1FE5C0DD901F0004C4FEAC0024C
:102330004CEA5070B2F1004F40EB830008BF20F030
:102340000100704711F0804F21D113F13872BCBFEA
:1023500001F00040704741F480114FEA5252C2F13F
:102360001802C2F1200C10FA0CF320FA02F018BF88
:1023700040F001004FEAC1234FEAD32303FA0CFCDB
:1023800040EA0C0023FA02F34FEA4303CCE77FEA6A
:10239000625307D150EA01331EBF4FF0FE4040F4B4
:1023A0004000704701F0004040F0FE4040F4000063
:1023B000704700BF80F0004002E000BF81F00041A4
:1023C00042001FBF5FEA410392EA030F7FEA226CDB
:1023D0007FEA236C6AD04FEA1262D2EB1363C1BF6B
:1023E000D218414048404140B8BF5B42192B88BFDA
:1023F000704710F0004F40F4000020F07F4018BFFD
:10240000404211F0004F41F4000121F07F4118BF1C
:10241000494292EA030F3FD0A2F1010241FA03FCC4
:1024200010EB0C00C3F1200301FA03F100F00043AC
:1024300002D5494260EB4000B0F5000F13D3B0F174
:10244000807F06D340084FEA310102F10102FE2AE3
:1024500051D2B1F1004F40EBC25008BF20F0010053
:1024600040EA03007047490040EB000010F4000F01
:10247000A2F10102EDD1B0FA80FCACF1080CB2EB94
:102480000C0200FA0CF0AABF00EBC25052421843F3
:10249000BCBFD0401843704792F0000F81F4000198
:1024A00006BF80F400000132013BB5E74FEA41036B
:1024B0007FEA226C18BF7FEA236C21D092EA030FD7
:1024C00004D092F0000F08BF0846704790EA010F51
:1024D0001CBF0020704712F07F4F04D1400028BF7E
:1024E00040F00040704712F100723CBF00F5000060
:1024F000704700F0004343F0FE4040F40000704796
:102500007FEA226216BF08467FEA23630146420241
:1025100006BF5FEA412390EA010F40F48000704754
:102520004FF0000304E000BF10F0004348BF4042FA
:102530005FEA000C08BF704743F0964301464FF036
:1025400000001CE050EA010208BF70474FF0000392
:102550000AE000BF50EA010208BF704711F00043D3
:1025600002D5404261EB41015FEA010C02BF8446A3
:102570000146002043F0B64308BFA3F18053A3F502
:102580000003BCFA8CF2083AA3EBC25310DB01FA49
:1025900002FC634400FA02FCC2F12002BCF1004FCD
:1025A00020FA02F243EB020008BF20F0010070475E
:1025B00002F1200201FA02FCC2F1200250EA4C00B2
:1025C00021FA02F243EB020008BF20EADC707047F8
:1025D0004FF0FF0C1CEAD0521EBF1CEAD15392EA06
:1025E0000C0F93EA0C0F6FD01A4480EA010C4002E2
:1025F00018BF5FEA41211ED04FF0006343EA50103C
:1026000043EA5111A0FB01310CF00040B1F5000F7D
:102610003EBF490041EAD3715B0040EA010062F12C
:102620007F02FD2A1DD8B3F1004F40EBC25008BF16
:1026300020F00100704790F0000F0CF0004C08BF34
:1026400049024CEA502040EA51207F3AC2BFD2F101
:10265000FF0340EAC250704740F400004FF000030F
:10266000013A5DDC12F1190FDCBF00F00040704749
:10267000C2F10002410021FA02F1C2F1200200FA87
:1026800002FC5FEA310040F1000053EA4C0308BF4E
:1026900020EADC70704792F0000F00F0004C02BF9F
:1026A000400010F4000F013AF9D040EA0C0093F01A
:1026B000000F01F0004C02BF490011F4000F013B74
:1026C000F9D041EA0C018FE70CEAD15392EA0C0FE2
:1026D00018BF93EA0C0F0AD030F0004C18BF31F04D
:1026E000004CD8D180EA010000F00040704790F023
:1026F000000F17BF90F0004F084691F0000F91F0C7
:10270000004F14D092EA0C0F01D142020FD193EA8C
:102710000C0F03D14B0218BF084608D180EA010014
:1027200000F0004040F0FE4040F40000704740F0F0
:10273000FE4040F4400070474FF0FF0C1CEAD052BE
:102740001EBF1CEAD15392EA0C0F93EA0C0F69D01A
:10275000A2EB030280EA010C49024FEA402037D085
:102760004FF0805343EA111143EA10130CF000407C
:102770008B4238BF5B0042F17D024FF4000C8B426C
:1027800024BF5B1A40EA0C00B3EB510F24BFA3EB4C
:10279000510340EA5C00B3EB910F24BFA3EB91031C
:1027A00040EA9C00B3EBD10F24BFA3EBD10340EA76
:1027B000DC001B0118BF5FEA1C1CE0D1FD2A3FF6BC
:1027C00050AF8B4240EBC25008BF20F00100704771
:1027D0000CF0004C4CEA50207F32C2BFD2F1FF0314
:1027E00040EAC250704740F400004FF00003013A45
:1027F00037E792F0000F00F0004C02BF400010F4E9
:10280000000F013AF9D040EA0C0093F0000F01F0FC
:10281000004C02BF490011F4000F013BF9D041EA1E
:102820000C0195E70CEAD15392EA0C0F08D1420251
:102830007FF47DAF93EA0C0F7FF470AF084676E724
:1028400093EA0C0F04D14B023FF44CAF08466EE7FD
:1028500030F0004C18BF31F0004CCAD130F00042CB
:102860007FF45CAF31F000437FF43CAF5FE700BF23
:1028700070B542F6981642F69815C2F20006C2F2FA
:102880000005761BB61006D0002455F8243001341C
:102890009847A642F9D842F6981542F69C16C2F21D
:1028A0000005C2F20006761B00F06AF8B61006D0EA
:1028B000002455F8243001349847A642F9D870BD59
:1028C0000030014004300140083001400C3001402C
:1028D0001030014014300140183001401C300140DC
:1028E0002030014024300140283001402C3001408C
:1028F0003030014034300140383001403C3001403C
:102900004030014044300140483001404C300140EB
:102910005030014054300140583001405C3001409B
:102920006030014064300140683001406C3001404B
:102930007030014074300140783001407C300140FB
:10294000200021002200230024002500260027006B
:10295000280029002A002B002C002D002E002F001B
:1029600030003100320033003400350036003700CB
:10297000380039003A003B003C003D003E003F007B
:10298000F8B500BFF8BC08BC9E467047F8B500BF5C
:10299000F8BC08BC9E4670478504002071040020E6
:0429A0000000000033
:04000005200002993C
:00000001FF
